:020000040800F2
:10000000480A002015320008B9060008BB0600089F
:10001000BF060008C3060008C7060008000000006D
:10002000000000000000000000000000CB060008F7
:10003000CD06000800000000CF060008D106000829
:100040002B3200082B3200082B3200082B3200081C
:100050002B3200082B320008090700082B32000859
:100060002B3200082B3200082B3200082B320008FC
:100070002B3200082B3200082B3200082B320008EC
:100080002B3200082B3200082B3200082B320008DC
:100090002B3200082B3200082B3200082B320008CC
:1000A0002B3200082B3200082B3200082B320008BC
:1000B0002B3200082B3200082B3200082B320008AC
:1000C0002B3200082B3200082B3200082B3200089C
:1000D0002B3200082B320008F50600082B320008EE
:1000E0002B3200082B3200082B32000800000000E1
:1000F0000000000000000000000000000000000000
:1001000000000000000000002B3200082B32000825
:100110002B3200082B3200082B3200082B3200084B
:100120002B3200082B3200082B3200082B3200083B
:100130002B3200082B3200082B3200082B3200082B
:100140002B3200082B3200082B3200082B3200081B
:1001500000F002F800F04CF80AA090E8000C82448D
:100160008344AAF10107DA4501D100F041F8AFF26A
:10017000090EBAE80F0013F0010F18BFFB1A43F085
:100180000103184780500000A0500000103A24BF1F
:1001900078C878C1FAD8520724BF30C830C144BFEC
:1001A00004680C607047000000230024002500262E
:1001B000103A28BF78C1FBD8520728BF30C148BFCA
:1001C0000B607047662904F0D087632903F06B83C6
:1001D000002070471FB504F046FF03F083FB0400C6
:1001E0000020002104F0C8F8E0601FBD10B510BD6C
:1001F00003F07CFC1146FFF7EDFF00F0F9F903F086
:100200009AFC03B4FFF7F2FF03BC00F068FD0000A6
:1002100000E0401E0028FCD17047F0B56FF00404E8
:10022000FE4BB3F1807F01D300BFFEE723F07F4197
:10023000491E4FF0E022516151170222002907DACE
:1002400015072F0EF64D01F00F06361FAF5503E0D0
:1002500015072E0EF34D6E5400BF00214FF0E02223
:1002600091610320042C02D140F0040001E020F051
:1002700004004FF0E0210861F0BD1FB5EA4802F02C
:10028000E1FD0020ADF804004BF6FF70ADF806006C
:100290003020ADF808004FF48060ADF80A0000018E
:1002A000ADF80C00E14800900121DF4802F061FE4A
:1002B0006946DD4802F0DFFD0121DB4802F095FED2
:1002C0001FBD70471CB50021022001F035FD012043
:1002D000009000208DF804000C208DF8050001200E
:1002E0008DF80600684601F06DFD1CBD00B585B0B7
:1002F0000020ADF800004FF48270ADF8020000203D
:10030000ADF80400ADF80600ADF808004FF4007039
:10031000ADF80A002020ADF80C000020ADF80E006A
:100320000720ADF810006946C14802F029FC012100
:10033000BF4802F0C8FC05B000BD1FB50020ADF8F5
:100340000400ADF80600ADF80800ADF80C000C2074
:10035000ADF80A00B74802F019FA4FF416500090B1
:100360006946B44802F055FA4021B24802F096FBC3
:10037000012240F22551AF4802F0C8FA0121AD48F0
:1003800002F0B8FAAC4802F001FA4FF4E130009004
:100390006946A94802F03DFA4021A74802F07EFBD9
:1003A000012240F22551A44802F0B0FA012240F2A5
:1003B0002771A14802F0AAFA01219F4802F09AFA97
:1003C0001FBD08B54FF6FF70ADF8000000208DF896
:1003D00003006946994801F0ABFB6946984801F073
:1003E000A7FB6946974801F0A3FB4FF40070ADF8F6
:1003F000000018208DF8030003208DF802006946E4
:100400008E4801F095FB4FF48060ADF800000420A9
:100410008DF8030003208DF802006946874801F03B
:1004200087FB4FF43240ADF8000010208DF8030038
:1004300003208DF802006946814801F079FB4FF4F2
:100440008040ADF8000010208DF8030003208DF8E7
:10045000020069467A4801F06BFB0120ADF800000C
:1004600004208DF8030003208DF8020069467548CA
:1004700001F05EFBE020ADF8000018208DF80300CD
:1004800003208DF8020069466C4801F051FB4FF4DF
:100490004060ADF8000003208DF802001C208DF8AC
:1004A00003006946664801F043FB18208DF80300FD
:1004B0000420ADF8000003208DF8020069465F4873
:1004C00001F036FB04208DF803000820ADF8000091
:1004D00003208DF802006946584801F029FB4FF4CB
:1004E000FC70ADF8000010208DF8030003208DF89B
:1004F00002006946534801F01BFB08BD10B501F02E
:1005000075FF4FF4803001F091FF01F0CEFF0446FB
:10051000012C24D1102001F0E9FC022001F0D2FCD2
:10052000002002F004F8002002F013F8A00202F00C
:1005300007F84FF4E011200401F0DCFF012001F086
:10054000E5FF00BF392001F094FF0028FAD0022017
:1005500001F0DFFF00BF01F0E5FF0828FBD101211A
:10056000080302F0ABF801211C2002F0A7F80121DA
:10057000084602F0A3F80121880302F09FF8012148
:10058000480402F0A8F80121042002F0A4F8012197
:10059000880502F0A0F810BD08B500214FF00060FA
:1005A00001F030FA4FF4E06001F0F4F906208DF824
:1005B000000001208DF8010000208DF802000120CC
:1005C0008DF80300684601F0EAF94FF4C06001F0CD
:1005D000E1F926208DF8000000208DF801008DF84B
:1005E000020001208DF80300684601F0D8F908BD2B
:1005F0001CB500BF14A103C9CDE90001FFF7CCFF72
:10060000FFF77CFFFFF7DDFEFFF797FEFFF76EFEBB
:10061000FFF758FEFFF755FE1AE00000405489002E
:1006200018ED00E000E400E000580040A086010062
:100630000030014000440040003801400008014003
:10064000000C014000100140456D696C0000000085
:10065000FFF713FEFFF7E1FD00F08CFB00F06AF8F6
:1006600000F0D4FE1148FFF7D3FD1DE000F092FE2C
:1006700001F076F94FF400410D4801F006FB4FF40C
:1006800000710B4801F0FFFA0A48FFF7C1FD4FF473
:100690000041074801F0F7FA4FF40071044801F0F7
:1006A000F4FA0448FFF7B4FDE0E70000FFFF0F0095
:1006B000000C0140FFFF0500704700BFFEE700BFD0
:1006C000FEE700BFFEE700BFFEE7704770477047D8
:1006D00010B500F0F9FE4FF40051144801F0C6FACD
:1006E000C0F10100C4B222464FF400510F4801F09E
:1006F000CEFA10BD10B540F225510D4802F0D7F9E1
:1007000008B100F0ACF910BD10B50024012001F0D3
:10071000BFFB50B1012001F0CCFB00F08BFB044685
:1007200014F4004F01D000F0B1FB10BD000C0140EB
:1007300000440040002007E03021F84A1154F84AF4
:100740001154F84A1154401CFF28F5DD7047F44855
:1007500090F83D00F4490870F14890F83E00487068
:10076000EF4890F83B008870ED4890F83C00C87066
:10077000EB4890F839000871E94890F83A00487160
:10078000E748C0798871E648007AC871E448407A41
:100790000872E348807A4872E148C07A8872E0487B
:1007A000007BC87208467047DD48007DDF4A107044
:1007B000DB48407D5070DA48807D3038A02200FB55
:1007C00002F1D748C07D0122504301EB0011D4480B
:1007D000407E303800EB4002C2EBC01001EBC0019C
:1007E000CF48807E303800EBC00202EB001001EBF6
:1007F0008001CB48C07E303800EB800001EB400127
:10080000C748007F30380844C1B23C2091FBF0F06B
:10081000C1B24FF47A7091FBF0F03030C34AD0701F
:100820004FF47A7091FBF0F200FB1210C1B2642019
:1008300091FBF0F03030BD4A1071642091FBF0F272
:1008400000FB1210C1B20A2091FBF0F03030B74A21
:1008500050710A2091FBF0F200FB1210C1B20A2085
:1008600091FBF0F200FB12103030B04A9071302052
:10087000D0711072AA48807F507210467047A84805
:1008800090F82000AA4A1070A54890F821005070F6
:10089000A34890F822009070A14890F823003038C7
:1008A000A02200FB02F19E4890F824000122504350
:1008B00001EB00119A4890F82600303800EB400216
:1008C000C2EBC01001EBC001954890F8270030380A
:1008D00000EBC00202EB001001EB8001904890F8A1
:1008E0002800303800EB800001EB40018C4890F884
:1008F000290030380844C1B23C2091FBF0F0C1B26D
:100900004FF47A7091FBF0F03030894A10714FF457
:100910007A7091FBF0F200FB1210C1B2642091FBDF
:10092000F0F03030824A5071642091FBF0F200FB0D
:100930001210C1B20A2091FBF0F030307C4A907165
:100940000A2091FBF0F200FB1210C1B20A2091FBC9
:10095000F0F200FB12103030754AD0713020107266
:1009600050726F4890F82B009072104670476D4897
:10097000807E3038A02200FB02F16A48C07E01224E
:10098000504301EB00116748007F303800EB400214
:10099000C2EBC01001EBC0016248807F303800EB31
:1009A000C00202EB001001EB8000C1B2242091FBD9
:1009B000F0F0C1B25F4891FBF0F200FB1210C1B23F
:1009C00042F2107091FBF0F030305B4A107042F24E
:1009D000107091FBF0F200FB1210C1B24FF47A706C
:1009E00091FBF0F03030544A50704FF47A7091FB24
:1009F000F0F200FB1210C1B2642091FBF0F0303035
:100A00004D4A9070642091FBF0F200FB1210C1B2CD
:100A10000A2091FBF0F03030474AD0700A2091FB59
:100A2000F0F200FB12103030434A1071104670474C
:100A30003B4890F8320041490870394890F833003B
:100A40004870374890F834008870354890F8360080
:100A5000C870334890F8370008710846704710B5E1
:100A60000024374801F0BAFF00F07F002B49354AD7
:100A70001288885433480088401C32490880084650
:100A80000088801E2549085C0D280DD02D4800885F
:100A9000401E085C0A2807D02A480088FF2803D196
:100AA000FD20284908808AE026480088801E1B49CE
:100AB000085C0D28F7D123480088401E085C0A28EE
:100AC0007DD108460078242840D108464078472840
:100AD0003CD108468078502838D10846C07856283E
:100AE00034D108460079542830D108464079472847
:100AF0002CD100240CE00948005D0A49085507483C
:100B0000015D11A002F0A4FB002004490855641CFB
:100B1000FF2CF0DD00200B49088050E05D00002034
:100B20005D0200205D0100203C0000204800002004
:100B300052000020A08601000000002005000020D7
:100B4000004400400A000020256300001C48007893
:100B5000242829D11A484078472825D11848807878
:100B6000502821D11648C07852281DD11448007948
:100B70004D2819D112484079432815D100240DE0A1
:100B80000F48005D0F4908550D48015DAFF2480060
:100B900002F05EFB00200A490855641CFF2CEFDDC3
:100BA0000020094908800AE0002403E000200449ED
:100BB0000855641CFF2CF9DD00200349088010BD96
:100BC0005D0000205D0200200A00002000B585B015
:100BD000012144F2040001F071FD4FF40070ADF802
:100BE000100018208DF8130003208DF8120004A9BE
:100BF000444800F09DFF4FF48060ADF810000420E1
:100C00008DF8130003208DF8120004A93D4800F070
:100C10008FFF4FF4E13000900020ADF80400ADF8F4
:100C20000600ADF80800ADF80C000C20ADF80A0085
:100C30006946354801F0EDFD4021334801F02EFFB3
:100C4000012240F22551304801F060FE012240F2BD
:100C500027712D4801F05AFE01212B4801F04AFE70
:100C600005B000BD08B518208DF803004FF4905072
:100C7000ADF8000003208DF802006946214800F01D
:100C800057FF04208DF803004FF44060ADF80000DA
:100C900069461C4800F04CFF08BD1FB5012144F215
:100CA000050001F00BFD4FF4E13000900020ADF89D
:100CB0000600ADF80400ADF808004FF44070ADF840
:100CC0000C000C20ADF80A0069460F4801F0A1FDA8
:100CD00001210D4801F00EFEFFF7C4FF1FBD0146C4
:100CE00000BF704770B504460D46E1B2064801F0FA
:100CF00071FE00BF4021044801F0C3FE0028F9D076
:100D0000204670BD000801400038014000E0401E50
:100D10000028FCD1704770B50446002500BF0221B1
:100D2000FA4802F059F80028F9D02146F74802F0B5
:100D300000F800BF0121F54802F04EF80028F9D074
:100D4000F24801F0F8FFC5B2284670BD10B5044660
:100D500000224FF48041EE4800F099FF2012FFF787
:100D6000DAFFE0B2FFF7D7FF01229103E84800F075
:100D70008EFF10BD10B50020E6490870E6490870E6
:100D8000E649087048F2D800FFF7E0FF48F2D820A3
:100D9000FFF7DCFF4AF24060FFF7D8FF4CF24760F4
:100DA000FFF7D4FF49F2A040FFF7D0FF4CF2AC2090
:100DB000FFF7CCFF4CF67740FFF7C8FF4CF68020DA
:100DC000FFF7C4FF4CF68320FFF7C0FF4CF29B40B7
:100DD000FFF7BCFF49F65000FFF7B8FF4FF4604043
:100DE000FFF7B4FF4FF44840FFF7B0FF4FF4404027
:100DF000FFF7ACFF0020FFF7A9FF4FF6FF70FFF7EA
:100E000085FF10BD10B50A02002310E080EA02043D
:100E100014F4004F05D041F2210484EA4004A0B24A
:100E200001E04404200C5404220C5C1CE3B2082BA7
:100E3000ECDB10BD10B500224FF48041B44800F047
:100E400026FF0020FFF767FF04020020FFF763FF83
:100E5000044301229103AE4800F019FF204610BD63
:100E600010B500224FF48041A94800F010FFB020D7
:100E7000FFF751FF04020020FFF74DFF044301225A
:100E80009103A34800F003FF204610BD10B50024D5
:100E9000A048007858B3A248007864280ADAFFF71F
:100EA000DFFFC4B29E490878411C9D4A11709D49DC
:100EB0000C540AE048F20820FFF748FF002095494B
:100EC000087001209549087010BD96480078C01C34
:100ED0009349097888422CDC48F20820FFF736FF56
:100EE00000208C49087001208C49087021E08A4854
:100EF0000078F0B18B498A4A1278895C41F4384015
:100F0000FFF724FF8648007860B900208249087006
:100F100085A002F09DF948F20820FFF717FFFFF7C0
:100F200089FF04E07E480078401E7D490870FFF785
:100F300081FF00BFC8E710B57848007808B10120EC
:100F400010BD7548007808B10220F9E771480078B3
:100F500008B10320F4E700207149087001206D49B1
:100F6000087048F25800FFF7F1FE4CF68120FFF7B9
:100F7000EDFE4CF68320FFF7E9FE48F2D820FFF79C
:100F8000E5FE0020DCE72DE9F04106464FF00008C1
:100F9000644805785F48007810B1FF20BDE8F08113
:100FA0005E48007808B9FE20F8E7642D04DD0020D3
:100FB00030705A490870F1E7002407E05948015D94
:100FC0004046FFF71FFF8046601CC4B2681C844285
:100FD000F4DB2046611CCCB252490F5C0846005D30
:100FE00047EA002700204D490870474500D0D5E763
:100FF000002405E04B49601C085C3055601CC4B2FD
:10100000AC42F7DB002070552846C7E72DE9F041D8
:1010100080460D461DB9404602F0EAF9C5B23E4889
:10102000007810B10120BDE8F0813A48007808B19D
:101030000220F8E7642D01DD0320F4E701203649A2
:10104000087005F109003649087008460478AA229C
:101050002046611ECCB233490A542046611ECCB2F0
:1010600030490A542046611ECCB22E490A542D2222
:101070002046611ECCB22B490A54D4222046611E60
:10108000CCB228490A542046611ECCB225490D54E1
:1010900029460020FFF7B6FE074600260EE018F8A6
:1010A00006202046611ECCB21E490A5418F80610CC
:1010B0003846FFF7A7FE0746701CC6B2AE42EEDB0D
:1010C0002046611ECCB217490F543A122046611EC9
:1010D000CCB214490A54AA222046611ECCB211494E
:1010E0000A542046611ECCB20E490A5448F2282008
:1010F000FFF72CFE4FF6FF70FFF708FE48F238208E
:10110000FFF724FEFFF796FE00208CE70030014039
:10111000000C0140110000201200002013000020EC
:10112000100000205D0300207478206F66660000C8
:1011300010B5002006490870064908700649087075
:1011400048F20820FFF702FEFFF774FE10BD000012
:10115000110000201200002013000020C0EB00113D
:1011600088B200BF411E89B20800FBD1704738B574
:101170000446ADF8004010208DF8030001208DF8E2
:10118000020069469B4800F0D3FC38BD38B50446E0
:10119000ADF8004048208DF8030001208DF80200D2
:1011A0006946944800F0C4FC38BD70B5054600247B
:1011B000002600BF24E02846FFF7D9FF29468D48C6
:1011C00000F063FD641029468A4800F05CFD284663
:1011D000FFF7DCFF0820FFF7C1FF2946854800F034
:1011E00038FD08B144F080042846FFF7C0FF2946C7
:1011F000804800F048FD3C20FFF7B0FF701CC6B2ED
:10120000082ED8DB204670BD70B504460D4600267A
:101210002846FFF7ACFF2946764800F034FD102041
:10122000FFF79CFF00BF19E02946724800F02DFD32
:1012300014F0010F04D029466E4800F024FD03E0AD
:1012400029466C4800F021FD64102820FFF786FF36
:101250002946684800F017FD701CC6B2082EE3DB73
:1012600070BD70B5044601252046FFF780FF21467A
:10127000604800F00AFD4FF4E170FFF76FFF214670
:101280005C4800F000FD3C20FFF768FF2046FFF7B8
:101290007DFF0A20FFF762FF2146564800F0D9FC87
:1012A000054600BF2146534800F0D3FC0028F9D082
:1012B0002046FFF75CFF21464E4800F0E4FC28463C
:1012C00070BD2DE9F04F8BB0814601200A90484651
:1012D000FFF7C7FF18B148480BB0BDE8F08F49468B
:1012E000CC20FFF791FF49464420FFF78DFF484689
:1012F000FFF7B7FF08B14048EEE74946CC20FFF7BB
:1013000083FF4946BE20FFF77FFF4846FFF74DFFAA
:1013100082464846FFF749FF07464AEA072006B2D9
:10132000C6F3061B0121B1EBE71F06D1F043401CB9
:1013300006B2C6F3061B881E0A9006F00F0101EBE9
:1013400081014800C11700EB11714FEA2118404696
:1013500003F05AFA0446294A294B03F06DFACDE905
:101360000201584603F050FACDE90001DDE90223FD
:1013700003F04AF8CDE906010A9803F045FACDE9F1
:101380000401DDE9062303F057FACDE9080103F073
:1013900009F8A1E710B5002400BF09E0194931F8A8
:1013A0001400FFF78EFF184941F82400601CC4B2F6
:1013B000062CF3DB10BD38B50446ADF80040142010
:1013C0008DF8030001208DF802006946094800F0FD
:1013D000AFFB38BD38B50446ADF8004004208DF8A9
:1013E000030001208DF802006946024800F0A0FBCE
:1013F00038BD00000010014000007F439A99999980
:101400009999B93F14000020CC03002001204F49D6
:1014100008707047704770473EB54D48006803F04C
:10142000F3FB044622460B464AA1684601F01CFF26
:1014300043208DF8000000216846FFF7E7FD3EBD20
:1014400070472DE9F04F9BB04349486903F0DCFB3E
:1014500004460D464049086903F0D6FB06460F4690
:101460003D49C86803F0D0FB804689463A49886800
:1014700003F0CAFB82468B463749486803F0C4FB39
:10148000CDE90C013449086803F0BEFBCDE902AB9D
:10149000CDE90489CDE90667CDE90845CDE90A0122
:1014A000DDE90C01CDE900012CA10EA8DDE90A233C
:1014B00001F0DAFE41208DF8380000210EA8FFF778
:1014C000A5FD1BB0BDE8F08F10B52C48007828B9F9
:1014D0002B48007810B92B48007800B110BD1B488C
:1014E0000078102802DD012018490870174800789C
:1014F00010F0010F02D0FFF7A4FF1EE013480078A0
:1015000010F0040F02D0FFF79BFF16E00F480078A1
:1015100010F0080F02D0FFF77FFF0EE00B480078B5
:1015200010F0100F02D0FFF776FF06E007480078B2
:1015300010F0200F01D0FFF76DFF0448007840063F
:10154000000E0249087000BFC8E70000200000201C
:101550002400002058256600CC03002058252E3298
:10156000662C252E32662C252E32662C252E3266D0
:101570002C252E32662C252E32660000110000200C
:10158000120000201300002000BF0100A0F10102A2
:1015900090B2FAD1704770B504460D4600BF0121E4
:1015A000204601F00AFD1421204601F068FD0646A0
:1015B00000222946204601F059FD1421204601F061
:1015C0005EFD10F0020FEAD07149204601F0FBFDEC
:1015D0000121204601F0FDFC70BD2DE9F0410746D8
:1015E000884616461D46069C14B90120BDE8F081C8
:1015F00000BF4FF40031384601F0D0FD0028F8D18B
:101600000121384601F0F1FC0121384601F0D5FCFA
:1016100000BF6049384601F0AEFD0028F9D0002235
:101620004146384601F022FD00BF5B49384601F0D3
:10163000A2FD0028F9D03146384601F011FD00BF67
:101640005549891C384601F096FD0028F8D0012143
:10165000384601F0B2FC00BF4E49384601F08BFD20
:101660000028F9D001224146384601F0FFFC00BFB6
:101670004849491C384601F07EFD0028F8D018E0A2
:10168000012C07D10021384601F0AFFC012138467A
:1016900001F09FFC00BF3F493F31384601F06BFD30
:1016A0000028F8D0384601F0DDFC28706D1C601E63
:1016B00084B2002CE4D10121384601F096FC0020D0
:1016C00094E72DE9F04106460F4614461D460121D8
:1016D000304601F072FC00BF2E49304601F04BFD50
:1016E0000028F9D000223946304601F0BFFC00BF87
:1016F0002949304601F03FFD0028F9D02146304607
:1017000001F0AEFC00BF2449891C304601F033FDD6
:101710000028F8D02946304601F0A2FC00BF1E493F
:10172000891C304601F027FD0028F8D00121304601
:1017300001F04FFC39463046FFF72DFF4FF47A7029
:10174000FFF722FF0020BDE8F0812DE9F0470746B2
:10175000884615461C46DDF8209000260BE014F85C
:10176000013B2A46691CCDB241463846FFF7A9FF26
:1017700008B1701CC6B25FEA0900A9F101011FFAA5
:1017800081F9ECD116B10120BDE8F0870020FBE71C
:101790000004001001000300820007002DE9F0475B
:1017A00004460D4616461F46DDF8208045EA042013
:1017B000C6F11001084101B207EB08020120904078
:1017C00091FBF0FA504603F06FFB81464846BDE8B6
:1017D000F0872DE9F04F8FB0044601231222C0217B
:1017E0006348FFF76EFF6348089002E00898401EC8
:1017F000089008980328F9D810200BAB0022C021CC
:1018000000905B48FFF7E9FE9DF82C1089009DF8D9
:101810002D2041EAA21003F047FB0A909DF82E10FC
:1018200089009DF82F2041EAA21003F03DFB0990AA
:10183000002000909DF831109DF830000323102205
:10184000FFF7ACFF0546002000909DF833109DF88F
:1018500032000D231022FFF7A1FF06460020009062
:101860009DF835109DF834000E231022FFF796FFE7
:101870000746092000909DF837109DF836000D238B
:101880000E22FFF78BFF80460B2000909DF8391049
:101890009DF838000A230B22FFF780FF81460F20B6
:1018A00000909DF83B109DF83A000A230B22FFF7A9
:1018B00075FF82465046099903F00EFB39460490A5
:1018C00003F0CEF90590099903F006FB0790404616
:1018D000099903F001FB039048460A9903F0FCFACA
:1018E0003146019003F0BCF90290039903F0B8F976
:1018F00004900A9903F0F0FA2946059003F0B0F934
:101900000690079903F0ACF983461B49584603F04B
:10191000E3FA1A49069003F005FA1949079003F013
:101920009FF92060099803F06FF90022154BCDE96B
:10193000000103F07FF84FF06632134BCDE902014E
:1019400002F00AFE0022114BCDE9040102F05CFD19
:10195000CDE9060102F026FD60600FB0BDE8F08F12
:101960001CB56846FFF735FF0949009808601CBDA3
:1019700000580040F82401000080224400C07F4449
:101980000000FA4300207F40666615C00000394021
:101990002400002031490143314A1160704770B57D
:1019A000002100230F22C4780CB32D4C246804F4CA
:1019B000E064C4F5E064210AC1F10403CA4044783C
:1019C00004FA03F18478144021430901254C067878
:1019D000A155047804F01F050124AC4005786D1171
:1019E0004FF0E02606EB8505C5F8004109E00478D4
:1019F00004F01F050124AC401B4D0678761145F814
:101A0000264070BD194A0A400243154B1B1F1A603D
:101A1000704739B1124A121D12680243104B1B1D48
:101A20001A6006E00E4A121D126882430C4B1B1D01
:101A30001A607047042808D14FF0E021096941F08D
:101A400004014FF0E022116107E04FF0E021096945
:101A500021F004014FF0E022116170470000FA0507
:101A60000CED00E000E400E080E100E080FFFF1FFB
:101A700010B50446C248844208D10121042000F078
:101A800037FE0021042000F033FE46E0BD488442CA
:101A900008D10121082000F02BFE0021082000F0D1
:101AA00027FE3AE0B848844208D10121102000F016
:101AB0001FFE0021102000F01BFE2EE0B3488442E0
:101AC00008D10121202000F013FE0021202000F089
:101AD0000FFE22E0AE48844208D10121402000F0F0
:101AE00007FE0021402000F003FE16E0A9488442D2
:101AF00008D10121802000F0FBFD0021802000F0B2
:101B0000F7FD0AE0A448844207D10121801500F0C6
:101B1000EFFD0021A01500F0EBFD10BD10B5012177
:101B2000084600F0E5FD0021012000F0E1FD10BDB8
:101B30002DE9F04102460025002600200023002464
:101B4000002791F803C00CF00F0591F803C01CF0BA
:101B5000100F03D091F802C04CEA0505B1F800C09F
:101B60001CF0FF0F31D0146800202BE04FF0010C67
:101B70000CFA00F3B1F800C00CEA03069E4220D133
:101B800083004FF00F0C0CFA03F7BC4305FA03FC7B
:101B90004CEA040491F803C0BCF1280F06D14FF0C1
:101BA000010C0CFA00FCC2F814C00AE091F803C062
:101BB000BCF1480F05D14FF0010C0CFA00FCC2F843
:101BC00010C0401C0828D1D31460B1F800C0BCF18B
:101BD000FF0F34DD546800202EE000F1080C4FF0B8
:101BE000010808FA0CF3B1F800C00CEA03069E42A3
:101BF00021D183004FF00F0C0CFA03F7BC4305FA18
:101C000003FC4CEA040491F803C0BCF1280F05D191
:101C100000F1080C08FA0CF8C2F8148091F803C01F
:101C2000BCF1480F07D100F1080C4FF0010808FA89
:101C30000CF8C2F81080401C0828CED35460BDE8D0
:101C4000F0814FF6FF710180022181700421C17083
:101C500070470246002093680B4201D0012000E04B
:101C6000002070470146886880B270470246002015
:101C7000D3680B4201D0012000E0002070470146EC
:101C8000C86880B2704701617047416170470AB10E
:101C9000016100E041617047C16070474FF48032DC
:101CA0000A4382618161826182698269704702466A
:101CB00000203A4B18684FF68073184040EA021033
:101CC0000843364B186070473549C8617047F0B516
:101CD0000A460023002400210025304E7168C0F31D
:101CE000034583B200F44016B6F5401F08D121F039
:101CF00070612A4E766826F07066284F7E6012E08A
:101D000000F48016B6F5801F06D1032606FA05F406
:101D1000A14341F0706106E0460D360103FA06F674
:101D2000B14341F0706122B1460D360103FA06F667
:101D300031431A4E7160F0BD30B500228B071C0F85
:101D40000F2303FA04F2154B08338C1053F8243098
:101D50009343124C08348D1044F8253023468C10E0
:101D600053F824308C07240F00FA04F423430B4C5F
:101D700008348D1044F8253030BD0A49086070479A
:101D800000080140000C0140001001400014014017
:101D900000180140001C01400020014000000140EB
:101DA00000002042DC002042002044490860091D58
:101DB0000860091D0860091D086041483F49143149
:101DC0000860704700213D498279002A3AD00A46CE
:101DD000126803689A430B461A600A1D126803686A
:101DE0009A430B1D1A60027911440A6803681A436A
:101DF0000A60324A0832126803689A432F4B08334C
:101E00001A601A1D126803689A432C4B0C331A602F
:101E10004279102A0ED11A1F126803681A43274B01
:101E200008331A601A1D126803681A43234B0C33D7
:101E30001A600DE02149427911440A6803681A4387
:101E40000A6005E0027911440A6803689A430A604F
:101E500070470021016001710C21417100218171E5
:101E600070471649103109680143144A1032116055
:101E7000704701460020114A143212680A4201D00C
:101E8000012000E0002070470C49143108607047C1
:101E9000014600200022094B1B6803EA0102074BA0
:101EA00014331B680B4202D00AB1012000E000206D
:101EB0007047024914310860704700000004014077
:101EC000FFFF0F0001460020FA4A106800F03800BA
:101ED000084310607047F749096821F00801F54A86
:101EE000116011460968014311607047F1490968A2
:101EF00021F01001EF4A1160114609680143116099
:101F00007047ED48EB494860EC4848607047E94845
:101F1000006940F08000E749086170470420E54906
:101F2000C96801F00101012901D101200EE0E14958
:101F3000C96811F0040F01D0022007E0DD49C9682B
:101F400011F0100F01D0032000E0042070470020A2
:101F5000FF2000E0401E0028FCD1704770B5044609
:101F60000425FFF7DBFF054605E0FFF7F0FFFFF76D
:101F7000D5FF0546641E012D01D1002CF5D104B911
:101F80000525284670BD70B50546042440F6FF704F
:101F9000FFF7E4FF0446042C19D1C648006940F05D
:101FA0000200C449086108464561006940F04000EC
:101FB000086140F6FF70FFF7D1FF0446052C06D0FC
:101FC000BC48006941F6FD710840BA4908612046E5
:101FD00070BD10B5042440F6FF70FFF7BFFF044644
:101FE000042C18D1B348006940F00400B1490861DD
:101FF0000846006940F04000086140F6FF70FFF7B6
:10200000ADFF0446052C06D0AA48006941F6FB71D5
:102010000840A8490861204610BD10B5042440F6C8
:10202000FF70FFF79BFF0446042C3BD1A248A14957
:102030008860A24888600846006940F02000086176
:102040000846006940F04000086140F6FF70FFF765
:1020500085FF0446042C1CD19648006941F6DF71C7
:102060000840944908610846006940F01000086182
:10207000A520934908800F20FFF770FF0446052C28
:1020800010D08C48006941F6EF7108408949086119
:1020900008E0052C06D08748006941F6EF7108403A
:1020A00084490861204610BD2DE9F04105460E46E1
:1020B000042400270F20FFF751FF0446042C26D1EB
:1020C0007C48006940F001007A4908612E800F20A9
:1020D000FFF744FF0446042C10D1AF1C300C3880AD
:1020E0000F20FFF73BFF0446052C10D07148006914
:1020F00041F6FE7108406F49086108E0052C06D0E2
:102100006C48006941F6FE7108406A490861204642
:10211000BDE8F08170B505460E4604240F20FFF798
:102120001DFF0446042C13D16248006940F00100F1
:10213000604908612E800F20FFF710FF0446052C30
:1021400006D05C48006941F6FE71084059490861B3
:10215000204670BD70B505460E4604240F20FFF7DB
:10216000FDFE0446042C17D1534852498860534859
:1021700088600846006940F0100008612E800F203A
:10218000FFF7ECFE0446052C06D04A48006941F6EC
:10219000EF71084047490861204670BD2DE9F047BE
:1021A00004464FF6FF763746B046B1460425E44371
:1021B000E6B2C4F30727C4F307484FEA14690F20B7
:1021C000FFF7CCFE0546042D40D13B4839498860D5
:1021D0003A4888600846006940F010000861FF2E08
:1021E00006D03748083006800F20FFF7B7FE0546B7
:1021F000042D08D1FF2F06D031480A3007800F2068
:10220000FFF7ACFE0546042D0AD1B8F1FF0F07D049
:102210002B480C30A0F800800F20FFF79FFE0546EA
:10222000042D0AD1B9F1FF0F07D025480E30A0F8D0
:1022300000900F20FFF792FE0546052D06D01D48A1
:10224000006941F6EF7108401A4908612846BDE867
:10225000F08770B50546042440F6FF70FFF77EFE58
:102260000446042C49D114481249886013488860F8
:102270000846006940F0200008610846006940F007
:102280004000086140F6FF70FFF768FE0446042C2A
:102290002AD10848006941F6DF7108400549086104
:1022A0000846006940F0100008615DB10020044953
:1022B00008800AE00020024023016745AB89EFCD8A
:1022C00000F8FF1FA5204549088040F6FF70FFF782
:1022D00045FE0446052C10D04148006941F6EF71D7
:1022E00008403F49086108E0052C06D03C480069D9
:1022F00041F6DF7108403A490861204670BD2DE97A
:10230000F04105460E461746042436483449886095
:10231000354888600F20FFF721FE0446042C19D1B0
:102320002F48006940F010002D49086147F0F8007F
:10233000304328432949891C08800F20FFF70EFEEF
:102340000446052C06D02648006941F6EF71084086
:10235000234908612046BDE8F0812148C069800812
:1023600070471F48006A704700201D49C96911F075
:10237000020F01D0012000E0002070470020184922
:10238000096811F0200F01D0012000E00020704703
:1023900029B1134A12690243114B1A6104E0104A31
:1023A000126982430E4B1A617047014600200129D1
:1023B00008D10B4AD26912F0010F01D0012008E0C8
:1023C000002006E0064AD2680A4201D0012000E05F
:1023D000002070470249C8607047000000F8FF1FE6
:1023E0000020024023016745AB89EFCDDC4800683F
:1023F00040F00100DA49086008464068D9490840C1
:10240000D749486008460068D7490840D449086061
:102410000846006820F4802008600846406820F4E0
:10242000FE0048604FF41F0088607047CC4909687F
:1024300021F48031CA4A11601146096821F48021D3
:102440001160B0F5803F03D0B0F5802F0ED106E0CB
:10245000C349096841F48031C14A116007E0C049AD
:10246000096841F4A021BE4A116000E000BF00BF2E
:10247000704710B501460022002300204A11012AAE
:1024800002D1B74C236806E0022A02D1B44C236A79
:1024900001E0B34C636A01F01F02012494401C4226
:1024A00001D0012000E0002010BD70B500240025FF
:1024B000002600BF3120FFF7DCFF0646641CB4F5A0
:1024C000A06F01D0002EF5D03120FFF7D2FF08B168
:1024D000012500E00025284670BD01460020A04AE5
:1024E000106820F0F80040EAC100106070479F4972
:1024F0000860704702460020994B586820F47C1011
:1025000042EA01031843964B5860704797490866A2
:10251000704701460020924A506820F003000843AB
:10252000506070478E48406800F00C0070470146CC
:1025300000208B4A506820F0F0000843506070473C
:1025400001460020864A506820F4E060084350604D
:10255000704701460020824A506820F4605040EAEB
:10256000C1005060704729B17D4A527A02437C4BCA
:102570005A7206E07A4A527AC343DBB21A40784B69
:102580005A7270477A490860704701460020744AC1
:10259000506820F440400843506070470021754A5D
:1025A00011706F4A82F82010012802D0042808D147
:1025B00003E001216F4A117004E005216D4A11709A
:1025C00000E000BF00BF70476B4908607047644976
:1025D000096A0143624A11627047674944390860D9
:1025E000704730B500210022002400235C4D6D6847
:1025F00005F00C0121B1042905D0082923D105E0FB
:102600005E4D056022E05D4D05601FE0544D6D6834
:1026100005F47012524D6D6805F48034022505EB07
:1026200092421CB9564D554305600BE04C4D6D6808
:1026300015F4003F03D0524D5543056002E04F4D65
:102640005543056002E04D4D056000BF00BF444D9D
:102650006D6805F0F00109094A4D6B5C0568DD40C5
:1026600045603F4D6D6805F4E061090A454D6B5CBE
:102670004568DD4085603A4D6D6805F46051C90AD2
:10268000404D6B5C4568DD40C560354D6D6805F4B7
:102690004041890B3C4D6B5CC568B5FBF3F50561AA
:1026A00030BD29B12E4A526902432D4B5A6104E0D4
:1026B0002B4A526982432A4B5A61704729B1284AF2
:1026C00092690243264B9A6104E0254A926982434B
:1026D000234B9A61704729B1214AD2690243204BAA
:1026E000DA6104E01E4AD26982431D4BDA61704709
:1026F00029B11B4AD2680243194BDA6004E0184A38
:10270000D2688243164BDA60704729B1144A1269C5
:102710000243134B1A6104E0114A12698243104BC1
:102720001A61704714494039086070470F49C864FE
:1027300070470B49C87170470948406A40F0807083
:1027400007494862704701460020054A92680A42DC
:1027500001D0012000E000207047014988727047D5
:10276000001002400000FFF8FFFFF6FE00004242AA
:10277000D8004242201002408004424200127A00F7
:1027800000093D00280000203800002010B5044654
:10279000E348844209D101218803FFF7A9FF002102
:1027A0004FF48040FFF7A4FF32E0DE48844209D1B5
:1027B00001214804FFF7A9FF00214FF40030FFF783
:1027C000A4FF25E0D848844209D101218804FFF7FD
:1027D0009CFF00214FF48020FFF797FF18E0D348BB
:1027E000844209D10121C804FFF78FFF00214FF473
:1027F0000020FFF78AFF0BE0CD48844208D1012179
:102800000805FFF782FF00214FF48010FFF77DFFDE
:1028100010BD2DE9F04786B005460E460024A246BD
:1028200000BF00BF0027B08900B100BF2F462C8A2F
:102830004CF6FF700440F08804432C82AC894EF6BD
:10284000F3100440B0883189084371890843044378
:10285000AC81AC8A4FF6FF400440B0890443AC829F
:1028600001A8FFF7BEFEAE48874202D1DDF810A0F6
:1028700001E0DDF80CA00AEBCA0000EB0A10316899
:102880008900B0FBF1F86420B8FBF0F004012009E6
:10289000642101FB1089322000EB0910B0FBF1F03C
:1028A00000F00F0004432C8106B0BDE8F0874FF420
:1028B0001651016000218180C18001810C2141817C
:1028C00000218181704710B502460020108A4FF226
:1028D000FF0318400B884C8823438C882343CC8803
:1028E00023431843108210BD002101804180818064
:1028F000C180704721B1828942F40052828104E094
:1029000082894DF6FF731A4082817047F0B5034605
:102910000024002600250020A1F510676A3F00D1A1
:1029200000BF1846C1F3421401F01F06012707FA41
:1029300006F5012C01D10C3004E0022C01D110303D
:1029400000E014301AB107682F43076002E00768FF
:10295000AF430760F0BD10B51AB1838A0B43838281
:1029600004E0838ACC43A4B22340838210BD028A50
:102970004FF6F0731A400282028A0A4302827047BD
:1029800082894FF2FF731A40828182890A438281D1
:10299000704721B1828942F00202828104E082897B
:1029A0004FF6FD731A4082817047028A4FF6DF733B
:1029B0001A400282028A0A430282704721B1028AC7
:1029C00042F48042028204E0028A4BF6FF731A400E
:1029D00002827047C1F308028280704701468888EE
:1029E000C0F308007047818941F00101818170477F
:1029F000028BD2B20283028B42EA01220283704729
:102A0000028B02F47F420283028B0A4302837047E7
:102A100021B1828A42F02002828204E0828A4FF64B
:102A2000DF731A408282704721B1828A42F010021D
:102A3000828204E0828A4FF6EF731A4082827047E6
:102A400021B1828A42F00802828204E0828A4FF633
:102A5000F7731A4082827047828A4FF6FB731A40DE
:102A60008282828A0A438282704721B1828A42F03E
:102A70000202828204E0828A4FF6FD731A4082824B
:102A8000704702460020B1F5007F00D100BF1388D7
:102A90000B4201D0012000E00020704701F40072D9
:102AA000B2F5007F00D100BFCA430280704770B505
:102AB00002460024002300250020A1F510666A3E8E
:102AC00000D100BFC1F3421501F01F03012606FA31
:102AD00003F3012D02D19689334006E0022D02D185
:102AE000168A334001E0968A33400C12012606FA1A
:102AF00004F41688344013B10CB1012000E000202A
:102B000070BD10B500220023A1F510646A3C00D10D
:102B100000BF0A1201249440A3B2DC43048010BD1C
:102B2000003801400044004000480040004C004094
:102B30000050004010B50446BF48844208D101212E
:102B40008014FFF7D5FD0021A014FFF7D1FD16E09A
:102B5000BA48844208D101210014FFF7D6FD0021B4
:102B60002014FFF7D2FD0AE0B548844207D10121C5
:102B7000C013FFF7CAFD0021E013FFF7C6FD10BD2B
:102B800010B50022028802F441520B884C8823437E
:102B90008C882343CC8823430C8923434C892343CB
:102BA0008C892343CC8923431A430280838B4FF2C1
:102BB000FF74234083830B8A038210BD2DE9F04FFD
:102BC00085B005460C464FF0000902274FF000087B
:102BD0004FF0010B0026B246A88B4FF2400108408F
:102BE000A88302202884B5F81C902089022801D1EE
:102BF00000BF36E0A08810B94FF0010B01E04FF0A4
:102C0000020B8E48854200D100E000BF6846FFF706
:102C1000E8FCDDF800A0E088B0F5007F0AD14FEABB
:102C20001A2000EB800040002189B0FBF1F0401D2C
:102C300086B20BE04FEA4B10BAFBF0F000EB8000DD
:102C400040002189B0FBF1F0401D86B20A20B6FB9E
:102C5000F0F606F00108A6EB0800C0F34F074FEAB4
:102C60000828022F01DBFF2F02DD02274FF00008AA
:102C7000E08840EA080038432884A0886189084336
:102C8000618808432188084340F4006040EA09094C
:102C9000A5F81C9005B0BDE8F08F002101804180AF
:102CA0008180C180018141818181C18107210182AF
:102CB00070470021018041808180C1800221018113
:102CC00000214181704721B1028842F04002028018
:102CD00004E002884FF6BF731A400280704721B1AA
:102CE000828B42F48062828304E0828B4FF6FF3352
:102CF0001A408283704770B5002400230C1101250F
:102D0000A540ABB21AB185881D43858004E0858853
:102D1000DE43B6B23540858070BD10B51AB18388E8
:102D20000B43838004E08388CC43A4B22340838098
:102D300010BD81817047014688897047A1F57E42A8
:102D4000FF3A04D0028842F48072028004E00288D4
:102D50004FF6FF631A400280704721B1828842F02B
:102D60000402828004E082884FF6FB731A4082805E
:102D7000704702884FF2FF731A40028002880A43AC
:102D800002807047018841F480510180704721B171
:102D9000028842F40052028004E002884DF6FF737C
:102DA0001A400280704702460020012901D0108B92
:102DB00000E0908A70470146088A7047B1F5804F5D
:102DC00004D1028842F48042028004E002884BF67B
:102DD000FF731A40028070470246002013890B429D
:102DE00001D0012000E000207047CA4302817047F3
:102DF000F0B50246002000240023002501F00F0753
:102E00000126BE40B4B20B1101269E40B3B2968893
:102E100006EA03051689264202D00DB1012000E022
:102E20000020F0BD10B5002201F00F040123A340E3
:102E30009AB2D343038110BD0030014000380040F6
:102E4000003C004010B50446EE48844209D10121FF
:102E50004805FFF75AFC00214FF40010FFF755FC1E
:102E600008E001218805FFF750FC00214FF48000A5
:102E7000FFF74BFC10BD2DE9F04385B004460D462D
:102E80000026B1460427DFF88083A6884FF6C0707D
:102E900006406846FFF7A5FBDDF80880DB48B8FB75
:102EA000F0F01FFA80F946EA0906A68020884FF65E
:102EB000FE71084020800026D549286888420CD839
:102EC00028684000B8FBF0F087B2042F00DA04272E
:102ED0003E4309F10100208427E0E888A0F53F4146
:102EE000FF3906D1286800EB4000B8FBF0F087B24C
:102EF00009E0286800EBC00101EB0010B8FBF0F01E
:102F000087B247F480473805000D01D147F001072B
:102F100047F4004006434FF4967009FB00F04FF46D
:102F20007A7190FBF1F0401C2084A683208840F049
:102F30000100208026884FF6F5300640A888698970
:102F4000084306432680A88929890843208105B0C3
:102F5000BDE8F08341F288310160002181804BF6A9
:102F6000FF71C1800021018141814FF48041818145
:102F7000704721B1028842F00102028004E0028819
:102F80004FF6FE731A400280704721B1828842F4E6
:102F90000062828004E082884FF2FF731A408280D0
:102FA000704721B1828842F48052828004E0828896
:102FB0004EF6FF731A408280704721B1028842F4B6
:102FC0008072028004E002884FF6FF631A4002809C
:102FD000704721B1028842F40072028004E0028846
:102FE0004FF6FF531A400280704721B1028842F425
:102FF0008062028004E002884FF6FF331A400280AC
:1030000070470A46002181894FF60173194002F08A
:10301000FE0319438181704721B1828942F0010288
:10302000828104E082894FF6FE731A4082817047E4
:1030300021B1028842F04002028004E002884FF68B
:10304000BF731A400280704710B51AB183880B43D2
:10305000838004E08388CC43A4B22340838010BDE6
:10306000018270470146088AC0B2704712B141F030
:10307000010102E04FF6FE731940018270470246DB
:10308000002313460B441888704721B1028842F48C
:103090000042028003E00288C2F30E020280704701
:1030A000B1F5005F04D1028842F40052028004E0CE
:1030B00002884DF6FF731A400280704721B10288E2
:1030C00042F48052028004E002884EF6FF731A40F8
:1030D00002807047B1F5006F04D1028842F40062AB
:1030E000028004E002884FF2FF731A4002807047AA
:1030F00021B1028842F02002028004E002884FF6EB
:10310000DF731A40028070470146088B0012704737
:1031100021B1028842F01002028004E002884FF6DA
:10312000EF731A400280704721B9028842F0800292
:10313000028004E002884FF67F731A4002807047D5
:10314000B1F5804F05D0828B4BF6FF731A40828316
:1031500003E0828B42F480428283704710B50146BF
:103160000020002300228B8A0A8B120443EA020407
:1031700024F07F4010BD70B50246002400250023D6
:103180000020958A138B1B0445EA030626F07F4432
:103190008C4201D1012000E0002070BD30B5034613
:1031A0000020002400221A460C0F21F07F410CB1B0
:1031B000143201E0090C183215680D4201D00120CB
:1031C00000E0002030BD002221F07F42D343838203
:1031D000704730B5024600200023948801F0E06576
:1031E00004EA154321F07F41948A0C4202D00BB1CE
:1031F000012000E0002030BD002221F07F42D343B7
:10320000838270470054004000127A0040420F0051
:10321000A086010008480047FEE7FEE7FEE7FEE75C
:10322000FEE7FEE7FEE7FEE7FEE7FEE703480449A8
:10323000044A054B70470000510100084804002073
:10324000480A002048060020480600207047000079
:103250000FB4044910B503AA029800F031FB10BC6A
:103260005DF814FB0C0000200FB41CB5074B06AA38
:103270007B4469460090059800F0F3FA0020694607
:1032800000F002FB1CBC5DF814FB000015060000FA
:1032900070B505460C46012A05D02868800600D581
:1032A000EA69002302E0012305E05B1C934202D29D
:1032B000E05C0028F9D1A869E618C01AA861286A5C
:1032C000184428622846AFF3008004E0D5E90121C4
:1032D00014F8010B9047B442F8D32846AFF30080AE
:1032E00070BD2DE9F0474FF0000A04468946C0F84A
:1032F00020A02046E1688847002876D0252806D0FF
:10330000D4E901219047206A401C2062F1E7E1687E
:10331000204600258847C4F81CA006460027C4F8AC
:1033200018A02A2E09D0304601F01FF838B304EB5C
:103330008708303EC8F8186019E059F8041B204689
:1033400004EB87029161E1688847012F064618D196
:10335000E069002820DA25F020051DE0D8F81800E3
:1033600000EB800006EB40003038C8F8180020461B
:10337000E1688847064600F0F8FF0028EED1012FEB
:103380000AD02E2E08D12046E16888477F1C0646C9
:10339000022F45F02005C4DBA069002803DA404273
:1033A00045F00105A061E80701D025F01005B6B190
:1033B000A6F14100192802D8203645F400654A4696
:1033C0003146204625604D46FCF7FCFE58B10128E9
:1033D00006D0ED1D25F0070000F1080989E704E09B
:1033E00005F1040985E730468AE7206ABDE8F087E1
:1033F00010B5431C02E010F8011B71B18107FAD12E
:103400004FF0013202C88C1A8C4314EAC211F9D071
:10341000C01A0A0603D0C01E10BDC01A10BD0A048F
:1034200001D0801E10BD0902FCD0401E10BD7047A7
:1034300070477047704770472DE9FF4F0C461E4696
:103440004FF0FF378BB0D2E90001DDF860800A90C1
:103450008A46C1F30A5505B93D46002108464FF09A
:103460000000BAF1000F00F4400005DA00EB800024
:103470004FF4400101EA50004FEA9059B9F1010FB1
:1034800000DDB9460A9850EA4A000FD044F61050C1
:10349000A5F2FF3545432F14B8F1000F1FD0754238
:1034A000291E1FDD4846C9F100021CE0B8F1010FDA
:1034B0004FF0000001D1F24307E0302101E0215438
:1034C000401CB042FBDB30460022002121540B9906
:1034D000C1F80880C1E900200FB0BDE8F08FBD1B26
:1034E0006D1CDDE74A4600DA694206A800F084FA5E
:1034F00006AB07CB03AB07C350460A9900F066FB47
:103500008DE80700A0F500501F3800900398002DAB
:1035100009DD42F21F014A46084403A903906846A8
:1035200000F0C5FD08E0A0F500504A461F3803A989
:103530000390684600F0CFFD8DE807000004000C02
:1035400003D04FF0FF30410800E01046B8F1000F03
:1035500003D00022009215461FE0751E06D400F02D
:10356000C5F902F1300262556D1EF8D5B34601224D
:10357000084302D000227F1C04E02078302801D1CB
:1035800000227F1E002A099786D01DE0112D07DA40
:1035900000F0ACF9303262556D1C50EA0102F5D1F1
:1035A00008430FD10021681E05E0235C625C635470
:1035B000491C2254401E8142F7DBAB46A81B401E2B
:1035C000099001E0009848B1002004F80B000B9826
:1035D000099AC0F80880C0E9002B7DE711264FF05A
:1035E000000859E72DE9F04F88460446D21D22F025
:1035F000070191B0D1E90001CDE90A0100F0A1FE77
:1036000002460B98C00F01D02D2007E020688107EB
:1036100001D52B2002E0202101EAC000032A0990F5
:1036200001D0072A05DB03464146204600F0A4F9F5
:103630000EE12068800601D5E06900E00620B8F1BF
:10364000650F814606D0B8F1660F18D0B8F1670F44
:1036500072D132E00020B9F1110F009001DB11238B
:1036600001E009F101030AAA01A90CA8FFF7E4FE91
:10367000DDE90C70002609F10105834648E00120D0
:103680004B4600904FF000470AAA01A90CA8FFF78B
:10369000D3FEDDE90C050E990026AB4619B909F1F8
:1036A000010100EB0105B9EB050003D4C0F1FF36C1
:1036B00009F10105A5EB09002BE0B9F1010F01DAD1
:1036C0004FF001090020B9F1110F0090484601DDCB
:1036D000112300E003460AAA01A90CA8FFF7ACFEDB
:1036E000DDE90C704D4600268346206800070AD4A9
:1036F000AB4500DA5D4601A8012D04DD411911F842
:10370000011C302907D04F4502DA17F1040F04DA03
:103710000120824610E06D1EEEE7002F02DCED1B5B
:103720003E4403E0781CA84200DD0546A7EB0600F6
:1037300000F1010A4FF000472068000703D4AA45B2
:1037400001DB4FF0FF3A0021B7F1004F0DF14308C4
:103750008DF8431022D002202B23002F01DA7F4264
:103760002D230A22011EA0F1010000DC4FB197FBBE
:10377000F2F102FB117C0F460CF1300C08F801CD80
:10378000F0E7A8F1010003702168090501D5452182
:1037900000E06521A0F1010800F8011C09980FA9BB
:1037A000A1EB080707F1070700B1012000EB0501B5
:1037B00001EBEA70A1693844A1EB0000A0F101001F
:1037C000A0612068C00602D42046AFF300800998AB
:1037D00030B1D4E901219047206A00F10100206254
:1037E0002068C00620D52046AFF300801CE0002EE4
:1037F00004DBB34502DD01A8805D00E03020D4E9A0
:1038000001219047206A761C401CBAF1010A20620F
:103810000AD100F067F8C0680168405CD4E9012172
:103820009047206A401C2062281EA5F10105DEDCBD
:1038300007E0D4E9012118F8010B9047206A401CE9
:103840002062381EA7F10107F3DC2046AFF30080A9
:10385000022011B041E6000001694A1C02610878AB
:10386000704700B58FB0CDE90131002105910549C0
:103870007944CDE9031011466846FFF732FD0FB0D9
:1038800000BD0000E5FFFFFF0A6802F8010B0A60B7
:10389000704710B5436913B1AFF3008001E0FFF743
:1038A000F7FC012010BD126800F124010A7000220B
:1038B0004A700122EDE711684FF0FF32E9E700009E
:1038C000074B70B50C467B44FFF7CBFF05462046FF
:1038D00000F004F910B14FF0FF3070BD284670BD04
:1038E0001BD4FFFF004870470404002030B5B0F13E
:1038F0000A024FEA900E71F100034EEA817EB0EBAE
:103900000E0061EB91014FEA101E4EEA017E10EBB2
:103910000E0041EB11114FEA102E4EEA016E10EB32
:103920000E0041EB11214FEA104E4EEA014E10EB12
:103930000E0041EB1141401841F100014FEAD00067
:1039400040EA41704FEAD10110EB80054FEA810453
:1039500044EA907444EB01046D1944EB0404521BD7
:10396000A3414FF0000348BF0A3200D530BD401CD0
:1039700041F1000130BD00002DE9F04104461F4631
:1039800003260168072A01F4006004DB08B116A5CC
:1039900005E016A503E008B115A500E015A521F086
:1039A00010002060A069C01EA0610FB1401EA06180
:1039B0002046AFF300804FB1D4E90121384690474B
:1039C000206A401C2062C01C206206E0206AFAE7E0
:1039D000D4E9012115F8010B9047761EF8D2204654
:1039E000AFF30080BDE8F0814E414E006E616E0085
:1039F000494E4600696E66002DE9F047814616463D
:103A00008AB035487844D0E9002380680092CDE937
:103A10000130314878440C38D0E902230069039220
:103A20004FF03702CDE9043041F69B30014491FB61
:103A3000F2F0A0F1800502FB10141B3C02D5644299
:103A4000012000E00020DFF890A080460027FA4423
:103A5000AAF1C60A0DE0E00709D03246684607EB36
:103A600047010AEB810100F036FB8DE80700641086
:103A70007F1C002CEFD1184F7F44B43F17E0E807BC
:103A800013D007EB04100DF1180A90E80E00AAE815
:103A90000E00C068F04201D198190890324606A97C
:103AA00003A800F018FB03AB07C36D10641C002DC6
:103AB000E5D132466946B8F1000F03A802D000F004
:103AC000F6FA01E000F007FBC9E90001C9F8082097
:103AD0000AB0BDE8F0870000E4170000C06800F0FD
:103AE0008000704700487047E40300207546FFF7E8
:103AF000F9FFAE4605006946534620F007008546AB
:103B000018B020B5FFF792FBBDE820404FF000064B
:103B10004FF000074FF000084FF0000B21F00701B5
:103B2000AC46ACE8C009ACE8C009ACE8C009ACE8F8
:103B3000C0098D4670470446AFF300802046FCF76D
:103B400060FB00004FF0013C50F8042B51F8043B9F
:103B50009A4221D1A2EB0C03934313EACC1317D161
:103B600050F8042B51F8043B9A4215D1A2EB0C03F8
:103B7000934313EACC130BD150F8042B51F8043BB8
:103B80009A4209D1A2EB0C03934313EACC13DBD086
:103B90004FF00000704700BFD01A01BAB1FA81F1AE
:103BA00001F0180122FA01F0CB40C1F12001DBB293
:103BB000C0B2C01A2CFA01F3D11A914311EAC31111
:103BC000E6D1704700487047E80300205FEA400CE8
:103BD00008BF91F0000F4FEA8C234FEAC12243EA5D
:103BE00051514FEA1C5018BF00F5F0404FEA300029
:103BF00018BF41F000415FEA6C5C00F02980BCF125
:103C0000FF3F08BF40F080407047130C06BF12040E
:103C10004FF0100C4FF0000C130E04BF12020CF109
:103C2000080C130F04BF12010CF1040C930F04BF16
:103C300092000CF1020CD30F04BF52000CF1010CE6
:103C400011464FF00002A0F11F00A0EB0C007047DE
:103C500011F0004F08BF704731F000413FF4D5AF7D
:103C60000B0C06BF09044FF0100C4FF0000C0B0EAC
:103C700004BF09020CF1080C0B0F04BF09010CF181
:103C8000040C8B0F04BF89000CF1020CCB0F04BF96
:103C900049000CF1010CCCF12003A0EB0C0022FA3E
:103CA00003F302FA0CF241EA030100F1010070474C
:103CB00020F07F4C80EA030023F07F47ACEB070342
:103CC00003F57C5300F0004003F1FF032DE9804928
:103CD0004FEA154B09B44FEA144325EA0B4E24EA88
:103CE00003480FF2042606EB132749083E785FEAE3
:103CF000320203FB0667C7F5000707FB06F64FEA2B
:103D000054374FEAD64606F1020607FB066CCCF1A3
:103D1000005C4FEA1C472CEA074C07FB06F40CFB3F
:103D200006F504EB15464FEA961634BF00204FF017
:103D300000404FEAD13706FB07FC4FEA1C4C0CFB56
:103D40000BF7D21B03FB0CF761EB07010CFB0EF723
:103D5000B0EB074072EB17420CFB08F734BFA2EB45
:103D60000742B2EB074261EB17414FEA0C444FEABE
:103D7000910706FB07FC4FEA1C4C0CFB0BF7B0EB62
:103D8000C74072EB573203FB0CF734BFA2EBC742BC
:103D9000B2EBC74261EB57310CFB0EF7B0EBC7003B
:103DA00072EB57720CFB08F734BFA2EBC702B2EB01
:103DB000C70261EB5771039F4FEA816141EA92119B
:103DC00004EBCC044FEAD1374FEA826206FB07FCD2
:103DD00042EA90124FEA80604FEA1C4C0CFB0BF752
:103DE000D21B03FB0CF761EB07010CFB0EF7B0EBEA
:103DF000074072EB17420CFB08F734BFA2EB0742F7
:103E0000B2EB074261EB17414FEA8C554FEA91073D
:103E100004EB9C2406FB07FC4FEA1C4C0CFB0BF745
:103E2000B0EBC74072EB573203FB0CF734BFA2EB89
:103E3000C742B2EBC74261EB57310CFB0EF7B0EB58
:103E4000C70072EB57720CFB08F734BFA2EBC70236
:103E5000B2EBC70261EB577115EB4C254FEA81615C
:103E600041EA92114FEA82624FEAD13742EA901258
:103E700006FB07FC44F100044FEA80604FEA1C4C4B
:103E80000CFB0BF7D21B03FB0CF761EB07010CFBE0
:103E90000EF7B0EB074072EB17420CFB08F734BF8C
:103EA000A2EB0742B2EB074261EB174115EB1C1581
:103EB0004FEA813141EA92414FEA823242EA90422E
:103EC0004FEA80304FEA0C7644F1000448EA03439D
:103ED0004EEA0B484FF0000EB2EB080C71EB0307F3
:103EE00024BF624639464EEB0E0E4FF0000B001811
:103EF000524149414BEB0B0BB2EB080C71EB030742
:103F00007BF1000B24BF624639464EEB0E0E4FF09C
:103F1000000B0018524149414BEB0B0BB2EB080C64
:103F200071EB03077BF1000B24BF624639464EEB71
:103F30000E0E51EA020718BF46F0010616EB0E7688
:103F400055F1000254F1000103D5BDE88901BDE837
:103F50000088BDE88901BDE80048B619524141EB2F
:103F60000101A3F10103704780807F7E7D7C7B7A15
:103F70007978777676757473727171706F6E6E6D15
:103F80006C6C6B6A6A6968686766666564646363BB
:103F900062616160605F5F5E5E5D5D5C5C5B5B5A41
:103FA0005A595958585757565655555554545353AE
:103FB00052525251515050504F4F4F4E4E4D4D4D09
:103FC0004C4C4C4B4B4B4A4A4A4949494848484754
:103FD0004747474646464545454444444443434392
:103FE0004342424242414141002B26D4770021D036
:103FF0001CB54FEA370703B44FF010004FF0100123
:104000004FF000000FBCBDE810400BF1010BBBF1FD
:10401000010F08BF5FEA170722BF12F1010211F179
:1040200001014FF0004143F1000300F0004043EA7A
:1040300000007047F9D35708DAE746EA064613F15D
:10404000400F4FEA16461FDD13F1200FDFBF164366
:104050000A46002120335B42C8D0C3F1200746EA5C
:10406000064602FA07F74FEA164646EA0706C3F184
:10407000200722FA03F201FA07F721FA03F14FF0C1
:10408000000342EA0702B1E746EA020646EA0646AC
:104090004FEA164646EA0106BCBF46EA0646360C1B
:1040A0004FF000034FF000024FF000019EE72DE9B2
:1040B000C048934630B491E8380007C831EA400C54
:1040C00048BF34EA430C03D5FFF7F2FDFFF78CFF3E
:1040D000F0BCBDE800882DE9C048934630B491E8B3
:1040E000380007C810F0804F08BF13F0804F03D18D
:1040F00000F005F8FFF778FFF0BCBDE8008820F07D
:104100007F4780EA030023F07F4C07EB0C03A3F505
:104110007C5300F00040A3F1FE0392F0000F00F08A
:10412000B38095F0000F00F077802DE901494FEA48
:1041300011404FEA144621EA004800FB06FC24EA3D
:10414000064708FB06F607FB08F800FB07F718EB25
:1041500006484CEB164C4FEA124B18EB07484FEA57
:1041600015464CEB174022EA0B4E0BFB06FC25EAEA
:1041700006470EFB06F607FB0EFE0BFB07F71EEBD2
:10418000064E4CEB164C4FF000061EEB074E4CEB68
:10419000174B18EB0B0840F1000018EB0E0B58EB17
:1041A000000840F100008F1A4FF000013CBFC943E6
:1041B000661B14BFB5EB040C00213CBFC943F61BC2
:1041C0004FEA17444EEA8E0E27EA04454FEA1C4791
:1041D00004FB07622CEA074C05FB07F70CFB05F60E
:1041E00004FB0CFC16EB074642EB174216EB0C46A1
:1041F00042EB1C421BEB060658EB0202414146EA29
:104200009E0601D5BDE80189B619524141EB010175
:10421000A3F10103BDE801894FEA14454FEA1147B4
:1042200024EA054621EA074C05FB07F406FB07F7DD
:104230000CFB06F105FB0CFC11EB074144EB1744AA
:104240004FEA124711EB0C4144EB1C4422EA074CA5
:1042500005FB07F206FB07F70CFB06F605FB0CFC5B
:1042600016EB074642EB174216EB0C4642EB1C4599
:104270006A1854F1000148BF7047B619524141EB2A
:104280000101A3F10103704795F0000F37D04FEA09
:1042900011424FEA144721EA024624EA074C02FB86
:1042A00007F106FB07F70CFB06F402FB0CFC14EB12
:1042B000074441EB17414FEA154714EB0C4441EB1F
:1042C0001C4125EA074C02FB07F506FB07F70CFB30
:1042D00006F602FB0CFC16EB074645EB174516EB02
:1042E0000C4645EB1C42121951F1000148BF7047C2
:1042F000B619524141EB0101A3F1010370474FEAA6
:1043000014454FEA114724EA054621EA074C05FB0C
:1043100007F106FB07F70CFB06F24FF0000605FB62
:104320000CFC12EB074241EB174112EB0C4251EB34
:104330001C4148BF7047921841EB0101A3F10103F2
:104340007047490050EAC12018BF04204A0D18BF29
:1043500040F0010040F2FF72B2EB515F08BF40F045
:104360000200012808BF0520704730380A2801D212
:10437000012070470020704710B500290AD0087846
:10438000002807D005487844FFF7DCFB002801D05F
:10439000002010BD0248784410BD00009E0E0000B1
:1043A000960E000021F00042A2F16052B2F5801F8B
:1043B00001F0004328BFD2F17F6C0BD95FEA001CEB
:1043C00043EAC20242EB507018BF704728BF20F08A
:1043D00001007047B2F5801FBCBF184670474FEA16
:1043E000410C1CF5001F02D2084600F043BE70B518
:1043F00000F0CCFA00000089FFF7F6BF4FF0004054
:10440000A0F580007047000010B591EA030F48BF87
:1044100083F0004300F11683841A71EB030C05D27C
:10442000121943EB0C03001B61EB0C01DFF824E1D4
:104430004FEA1154A4EB135C1EEA430F18BF9EEA27
:10444000445F73D023EA0E03DCF1200E21EA04510D
:1044500043F4801332D322FA0CFE10EB0E0023FA41
:104460000CFE41EB0E01CCF1200E03FA0EFE10EB18
:104470000E0051F10001B1F5801FCCF1200E32D2B7
:1044800001EB045112FA0EF2BDE8104058BF70471C
:10449000401C38BF5FEA420218BF7047002814BFB3
:1044A00020F0010041F100014FEA410313F5001F24
:1044B00038BF7047A1F1C04100F0B6BA012A43EB02
:1044C0000302ACF1200CDCF11F0E32BF4FF0000EE6
:1044D00023FA0CF310EB030041EB0451B4EB115F32
:1044E000D0D0A1EB045101F5801149085FEA3000FA
:1044F00001EB04510ED350F1000038BF12FA0EFE4A
:1045000008D1BDE81040C9E7401C38BF5FEA42024D
:10451000CAD1C3E7BDE810404FEA410313F5001FBD
:1045200038BF7047A1F1C04100F07EBA9EEA445FF7
:1045300008D011EA5E0FBDE8104004BF01F0004151
:1045400000207047BDE8104070B500F01FFA00BFB2
:1045500064FBBE3E0000E0FF2DE9C04130B4DFF84F
:10456000A0C23CEA111418BF3CEA131400F0EC801E
:1045700081EA03051CEA111444EAD57418BF1CEA49
:10458000131500F0C780A4EB05044FF0004545EA81
:10459000C12145EAC32341EA505143EA525304F191
:1045A0007F74994204F500344FEAC0204FEAC222DA
:1045B00008BF904200F09C804FEA13650FF240164E
:1045C000765D4FEA134506FB05F7C7F1807706FBDA
:1045D00007F74FEAD737A7FB03687642C8F580385C
:1045E000A7FB06CE38BFA8F1010807FB08E64FF08D
:1045F000000EA6FB028CE6FB03CEDCF1000CCEF134
:10460000004E38BFAEF1010EA6FB0C584FF000076C
:104610004FF00005E6FB0E87A1FB08C6A0FB07CE06
:1046200016EB0E0645F10005E1FB076515F1E04EBE
:104630007EBFA4F580345FEA46066D4116F180071F
:1046400045F100054FEA17274FEA066647EA056776
:10465000A6F1DE46B6F1805F4FEA15251FD9384630
:1046600024F0010C05EBC471BCF1FE6F01EB0C11E1
:1046700002D8F0BCBDE8008124425CBF01F5801E79
:104680009EEAC47F02D4F0BCBDE80081244238D445
:10469000F0BCA1F1C041BDE8004100F0C5B94FEA4E
:1046A000D22242EA43524FEAD323A7FB02864FEAC3
:1046B000D02040EA415007FB03661EEA0E0F4FEA86
:1046C000D12105FB026658BFA6EB0056B6EB00569B
:1046D0004FEA520E4EEAC37E18EB0E0E56EB530E07
:1046E000BDD518EB02085E417F1C55F10005B6E709
:1046F0004FF480154FF000074FF000064FF0000810
:10470000ADE7F0BC4FF0000001F1C04101F0004105
:10471000BDE8008111EA0C1F0CEA131500D00CE073
:1047200013EA0C1F00F025804FF00000F0BC81EA76
:10473000030101F00041BDE80081F0BCBDE800418B
:1047400081EA030100F070B9F0BCBDE8004170B52A
:1047500000F01CF9097EFC3E00F007B881EA030175
:104760004FF0000001F00041704781EA030100F0C2
:104770005BB9F0BCBDE800414FF000002149704733
:10478000FFFDFBF9F7F5F4F2F0EEEDEBE9E8E6E416
:10479000E3E1E0DEDDDBDAD8D7D5D4D3D1D0CFCD9D
:1047A000CCCBCAC8C7C6C5C4C2C1C0BFBEBDBCBBD6
:1047B000BAB9B8B7B6B5B4B3B2B1B0AFAEADACABD1
:1047C000AAA9A8A8A7A6A5A4A3A3A2A1A09F9F9EAB
:1047D0009D9C9C9B9A99999897979695959493935D
:1047E000929191908F8F8E8E8D8C8C8B8B8A8989F4
:1047F0008888878786858584848383828281818077
:104800000000FF070000F87F10F0004248BF404260
:10481000B0FA80F310FA03F10AD0C3F11D0303F5D7
:1048200080634FEA415002EB035202EBD121704703
:104830004FF0000070470000DFF848C170B51CEA77
:10484000111E1EBF1CEA13159EEA0C0F95EA0C0FF1
:1048500000F06F8081EA030423EA4C134EEAD47E11
:1048600021EA4C1141F4801143F48013AE44A1FBC2
:10487000024CA0FB0365AEF17F7E361955EB0C05AB
:10488000A1FB034C4CF10003A0FB021C16EB0C0631
:10489000654153F10003094218BF46F0010613F4C5
:1048A000007F0BD14FEA03314FEA0530340341EA70
:1048B000155140EA16506FF003020AE04FEAC32197
:1048C0004FEAC520F40241EA555140EA56506FF0D4
:1048D000020202EB2E4201EB025585EACE710AD0AC
:1048E0005FEA440C18BF24F0004450F1000041F18D
:1048F000000120EAD47040F2FE7C624500D270BD17
:10490000A84214BF4FF080444FF04044002E08BF2F
:104910000024BEF1806FA8BFA1F1C041BDE8704086
:1049200080F282804FF0000001F1C04101F00041AF
:1049300070479EEA0C0F0CEA131518BF95EA0C0F8E
:1049400006D04FF0000081EA030E0EF0004170BD6A
:1049500000F01CF88900013E00F007B800F009B82B
:104960004FEA430C5FEA5C5C08D081EA030100F087
:104970005BB84FEA410C5FEA5C5CF6D14FF0000097
:10498000014970470000FF070000F87F0EF1020E9A
:104990002EF0030E5EF8046B364205D4012A43EB79
:1049A000030515F5001F12D8012841EB010C1CF579
:1049B000001F0CD80ED14FEAD17C15F5001F0CEB6F
:1049C0004C0C0CF1020C08BF4CEBD37C04E04FF014
:1049D000080C01E04FEAD37C0CEB4C0526FA05F6F7
:1049E00006F00706B6F1040C06D20EEB860CBDE805
:1049F00070404CF0010C6047DFE80CF0090B02023C
:104A00004FF000414FF00000A1F5002170BD1946A4
:104A10001046012851EB010418BFD4F5001484BFDF
:104A2000002001F0004170BD0808A0F500114FEA18
:104A30003101704710B591EA030F48BF83F000437E
:104A40003FF5EAAC841A71EB030C07D212198CF013
:104A5000004C43EB0C03001B61EB0C01DFF8A4E1FD
:104A60004FEA1154A4EB135C1EEA430F18BF9EEAF1
:104A7000445F00F0B08023EA6E03524221EA045101
:104A8000C3EB6E0338BF5B1EDCF1200E25D322FA88
:104A90000CFE10EB0E0043FA0CFE41EB0E01CCF1C4
:104AA000200E03FA0EFE10EB0E0051F10001CCF1C6
:104AB000200E29D412FA0EF201EB0451BDE8104089
:104AC00058BF7047401C1CBFB2F1004F7047002810
:104AD0000CBF491C20F00100704712EB020E43EBA3
:104AE000030218BF4FF0010E4EEA4202ACF1200C57
:104AF000DCF11E0E54D943FA0CFE10EB0E0051F1FE
:104B0000FF31CCF11E0ED5D50EF1010E12FA0EFEBC
:104B1000404141EB010101EB445C5FEA5C5C10D970
:104B200010EBDE7001EB045138BFBEF1004FBDE861
:104B3000104018BF704700280CBF491C20F001002E
:104B4000704730D24FEAD42C11F5001124F40064E0
:104B50001BD0B1FA81F20B3AA41AA41ED2F12003A1
:104B6000914030FA03F31943904001EBCC71002CD3
:104B700001EB0451BDE81040A8BF704701F1C041EE
:104B80004FF0000001F000417047B0FA80F310FAD6
:104B900003F100D110BDE41A173C4805C90AE4E747
:104BA00001EB045110BD491001EB0451BDE8104068
:104BB0004FEA300002E04FF0000170474A0008BFA2
:104BC0000042F8D0B2F5001F28BF704701F0004145
:104BD0004FF0000070479EEA445F07D011EA5E0F75
:104BE000BDE8104004BF002100207047BDE8104020
:104BF00070B5FFF7CBFE00BF40DFF63E83F000410B
:104C0000104670470000E0FF43004FEAD30C4FEA24
:104C10003C0C43401FBF40070CF1605113F0FE4FA6
:104C200070471CF0006F03D100200CF0004170476A
:104C30000CF0004343EA507010B540EACC0000F09D
:104C4000CCF900BF000000924FEA0001FFF7ECBE74
:104C50004FF000414FF00000A1F500217047000027
:104C600090EA010F48BF81F0004100F11082421A22
:104C70003CBF801A89184FEAD0524FF07F4C1CEA93
:104C8000410FA2EBD15318BF9CEA026F00F03B80AA
:104C90004FF0004C4CEA00204CEA012121FA03FCC1
:104CA00010EB0C0C1ED202F1FF325FEA1C2040EB2D
:104CB000C25038BF70471CF07F0F4FEA400C18BF3E
:104CC000BCF17F4F38BF7047C3F12003994008BF44
:104CD00020F00100BCF17F4F38BF7047A0F1C04009
:104CE00000F0C8B94FEA3C00000A40EBC25028BFB0
:104CF0001CF0FF0F4FEA400CE6D018BFBCF17F4F0D
:104D000038BF7047EAE79CEA026F05D010EA5C0FF3
:104D100008BF00F00040704710B500F05EF900BF1A
:104D200064FBBE3E4FF47F0C1CEAD0121EBF1CEA8F
:104D3000D11392EA0C0F93EA0C0F00F0858090EAF1
:104D4000010F48BF42F4807240F4000C41F40000AF
:104D50002CF07F4120F07F4000B58142A2EB03029E
:104D60000FF2081CACEB504EC0F100009EF800E0C2
:104D70004FEA4E0E00FB0EFC38BF49004FEA2C1CD8
:104D800002F5FA020CFB0EF34FEACE1E4FEA112C8D
:104D90004FEAC1210EEB635E42EB22420EFB0CFC9C
:104DA0004FEA1C5300FB03114FEA112C4FEA01316B
:104DB0000EFB0CFC4FEADC4C00FB0C11C14228BF7F
:104DC00009184CEB03335DF804EB10EB410143EBA6
:104DD000C250B2F57C0F38BF704729D512F0F00FE2
:104DE0001CBF00F1C04000F000407047008182838A
:104DF0008485868788898B8C8D8E8F9192939596EA
:104E000097999A9C9D9FA0A2A3A5A7A8AAACAEB073
:104E1000B2B3B5B7B9BCBEC0C2C5C7C9CCCED1D478
:104E2000D7D9DCDFE2E6E9ECF0F3F7FAFE000000A8
:104E30004FEA400C0CF1807CBCF17E4F28BF7047DC
:104E4000B0F1C04000F016B990EA010F0CEAD1139E
:104E500048BF42F48072624538BF634507D213F4FD
:104E60007F0F16D080EA010000F00040704710B5B7
:104E700000F0B3F8097EFC3E00F005B880EA0100BE
:104E800000F00040704780EA010000F0004000F0B0
:104E9000F1B812F47F0F04BF0248704780EA0100A6
:104EA00000F0E8B80000C07F10F0004148BF404269
:104EB000B0FA80F310FA03F2C3F19D030BD051EA6C
:104EC000C35101EB1220530638BF704700F10100B7
:104ED00008BF20F0010070474FF47F0C1CEAD0128D
:104EE0001EBF1CEAD11392EA0C0F93EA0C0F00F0DC
:104EF000478090EA010F48BF42F480724FF0004CA7
:104F00004CEA00204CEA012102EB0302A0FB011352
:104F1000A2F50002002918BF43F001035B0028BF7F
:104F20004FEA330342EB22425FEA132C4CEBC250B0
:104F30002EBFBCEB436FB2F57C0F70474FEA036C9A
:104F4000BCF1004F08BF20F00100B2F57C0F38BF64
:104F500070470BD582F0FF0212F5803FC8BF704743
:104F600000F1C040D8BF00F00040704700F5000CD1
:104F70005FEA4C0C48BF7047B0F1C04000F07AB80F
:104F800090EA010F0CEAD11348BF42F480726245E7
:104F900038BF634504D280EA010000F0004070474A
:104FA00010B500F01AF800BF8900013E00F007B804
:104FB00000F009B85FEA410C5FEA1C6C08D080EA97
:104FC000010000F057B85FEA400C5FEA1C6CF6D1B4
:104FD0004FF00040A0F5800070470EF1020E2EF059
:104FE000030E5EF8044B244204D44FEA4102B2F1AE
:104FF0007F4F11D84FEA4003B3F17F4F0CD80ED149
:105000004FEAD07CB2F17F4F0CEB4C0C0CF1020C50
:1050100008BF4CEBD17C04E04FF0080C01E04FEAF4
:10502000D17C0CEB4C0324FA03F404F00704B4F134
:10503000040C06D20EEB840CBDE810404CF0010CC1
:105040006047DFE80CF0070802024FF00040A0F5CF
:10505000800010BD0846420018BFD2F1807288BFA0
:1050600000F0004010BD10B5FEF7ACFD4FF00001A0
:10507000016010BDFF2141EAD050C005704700001B
:1050800090EA010F48BF81F000413FF5F0AD421AB0
:1050900004D882F00042A0EB020011444FEAD05243
:1050A0004FF07F4C1CEA410FA2EBD15318BF9CEA92
:1050B000026F4AD04FF0004C4CEA00204CEA01212C
:1050C00021FA03FCB0EB0C0C0FD412F0FE0F36D01B
:1050D0005FEA4C001DD5001240EBC25038BF70474C
:1050E0001CF03F0F18BF70470BE0A2F101025FEA0E
:1050F0001C2040EBC25038BF70471CF07F0F18BF18
:105100007047C3F12003994014BF401E20F00100F6
:10511000704780084FEA122308BF7047B0FA80FC3E
:10512000A2EB0C02CCF1280C60FA0CF093EA122FDF
:1051300004BF00EBC25070474FEAC3707047130AB8
:105140005FEADC1008BF7047F6E79CEA026F04D004
:1051500010EA5C0F08BF0020704710B5FFF73DFF55
:1051600040DFF63E81F000407047FEF73BBA00009A
:1051700002400000000000A0000000000540000008
:10518000000000C8000000000C4000000000409C2F
:1051900000000000194000000020BCBE000000001C
:1051A00034400000BFC91B8E00000004B540000061
:1051B000504BCFD06607E2CF010000006C410000E9
:1051C0003E8251AADFEEA73401000000D942000060
:1051D000DCB5A0E23A301F97FFFFFFFFB4450000A7
:1051E000FD25A0C8E9A3C14FFFFFFFFFFF3F00005F
:1051F0000000008000000000FF3F00000000008071
:105200000000000040520008000000203C000000A8
:105210008C0100087C5200083C0000200C0A0000B1
:10522000A80100081C00000043000000F8FFFFFF79
:105230000C0000000E0000000F0000002E00000017
:10524000000000000000000000000000000000005E
:105250000000000008001000200040008000000155
:105260000000000000000000000000000102030434
:0C527000010203040607080902040608F6
:04000005080001519D
:00000001FF
