:020000040800F2
:10000000180A002091250008450600084706000848
:100010004B0600084F0600085306000800000000C9
:10002000000000000000000000000000570600086B
:1000300059060008000000005B0600085D06000885
:10004000A7250008A7250008A7250008A725000860
:10005000A7250008A725000873060008A7250008A3
:10006000A7250008A7250008A7250008A725000840
:10007000A7250008A7250008A7250008A725000830
:10008000A7250008A7250008A7250008A725000820
:10009000A7250008A7250008A7250008A725000810
:1000A000A7250008A7250008A7250008A725000800
:1000B000A7250008A7250008A7250008A7250008F0
:1000C000A7250008A7250008A7250008A7250008E0
:1000D000A7250008A72500085F060008A725000837
:1000E000A7250008A7250008A72500080000000094
:1000F0000000000000000000000000000000000000
:100100000000000000000000A7250008A725000847
:10011000A7250008A7250008A7250008A72500088F
:10012000A7250008A7250008A7250008A72500087F
:10013000A7250008A7250008A7250008A72500086F
:10014000A7250008A7250008A7250008A72500085F
:1001500000F002F800F041F80AA090E8000C824498
:100160008344AAF10107DA4501D100F036F8AFF275
:10017000090EBAE80F0013F0010F18BFFB1A43F085
:10018000010318476426000084260000103A24BFAB
:1001900078C878C1FAD8520724BF30C830C144BFEC
:1001A00004680C607047000000230024002500262E
:1001B000103A28BF78C1FBD8520728BF30C148BFCA
:1001C0000B607047632902F09882002070471FB5CA
:1001D00002F002FB1FBD10B510BD02F0C9FA1146B6
:1001E000FFF7F5FF00F04DF902F0E7FA03B4FFF76F
:1001F000F2FF03BC00F027FD00E0401E0028FCD108
:100200007047704708B500214FF0006000F0A0FF74
:100210004FF4C06000F064FF06208DF8000001205C
:100220008DF8010000208DF8020001208DF80300F8
:10023000684600F05AFF4FF4C06000F051FF2620DE
:100240008DF8000000208DF801008DF802000120DB
:100250008DF80300684600F048FF08BD1CB500217A
:10026000022001F00FF90120009000208DF8040019
:100270000C208DF8050001208DF80600684601F07D
:1002800047F91CBD00B585B00020ADF800004FF463
:100290008270ADF802000020ADF80400ADF8060051
:1002A000ADF808004FF40070ADF80A002020ADF85A
:1002B0000C000020ADF80E000720ADF810006946D4
:1002C000C64802F003F80121C44802F0A2F805B0C4
:1002D00000BD1FB50020ADF80400ADF80600ADF874
:1002E0000800ADF80C000C20ADF80A00BC4801F085
:1002F000F3FD4FF4165000906946B94801F02FFE07
:100300004021B74801F070FF012240F22551B44866
:1003100001F0A2FE0121B24801F092FEB14801F0C5
:10032000DBFD4FF4E13000906946AE4801F017FE66
:100330004021AC4801F058FF012240F22551A94864
:1003400001F08AFE012240F22771A64801F084FEE6
:100350000121A44801F074FE1FBD08B5012145F23A
:100360001D0001F051FD4FF6FF70ADF800000020B8
:100370008DF8030069469C4800F080FF69469B4861
:1003800000F07CFF69469A4800F078FF4FF4007057
:10039000ADF8000018208DF8030003208DF802004E
:1003A0006946914800F06AFF4FF48060ADF80000A4
:1003B00004208DF8030003208DF8020069468A4866
:1003C00000F05CFF4FF43840ADF8000010208DF8CD
:1003D000030003208DF802006946844800F04EFFB8
:1003E0004FF48040ADF8000010208DF8030003208A
:1003F0008DF8020069467D4800F040FF0120ADF80D
:10040000000004208DF8030003208DF802006946E7
:10041000774800F033FFE020ADF8000018208DF899
:10042000030003208DF8020069466F4800F026FFA4
:1004300018208DF803000420ADF8000003208DF88B
:1004400002006946684800F019FF04208DF8030097
:100450000820ADF8000003208DF8020069466248CC
:1004600000F00CFF4FF4FC70ADF8000010208DF888
:10047000030003208DF8020069465D4800F0FEFE8F
:1004800008BDA0B000245BA103C9CDE90001FFF7BE
:1004900064FFFFF71EFFFFF7F5FEFFF7DFFEFFF734
:1004A000B1FEFFF7AEFE00F019FC00F0F7F853487C
:1004B000FFF7A2FE47E04FF400414C4800F08BFFED
:1004C0004FF40061494800F084FF4D48FFF794FE67
:1004D0004FF40041454800F07CFF4FF40061434871
:1004E00000F079FF4648FFF787FE4648007838B9A4
:1004F0004548007820B94548007808B900F0DBFC91
:100500004248007800281ED002A800F0FCFC0446F7
:10051000002C08DDFE2C06DA02A802F057F80020B5
:100520008DF818000FE074B939A002F04FF839A027
:1005300002F04CF83DA002F049F836A002F046F86F
:1005400033A002F043F8B6E710B501F0F5FA4FF426
:10055000803001F011FB01F04EFB0446012C24D148
:10056000102001F069F8022001F052F8002001F09B
:1005700084FB002001F093FBA00201F087FB4FF405
:10058000E011200401F05CFB012001F065FB00BFDD
:10059000392001F014FB0028FAD0022001F05FFBA3
:1005A00000BF01F065FB0828FBD10121080301F021
:1005B0002BFC01211C2001F027FC0121084601F041
:1005C00023FC0121880301F01FFC0121480401F0F4
:1005D00028FC0121042001F024FC10BD0030014062
:1005E000004400400038014000080140000C014078
:1005F00000100140456D696C00000000FFFF0F0016
:10060000FFFF050011000020120000201300002051
:100610000D0A00002D2D2D2D2D2D2D2D2D2D2D2DA7
:100620002D2D2D2D2D2D2D2D0D0A00007C2020434C
:100630005243206572726F72202121212020207C7C
:100640000D0A0000704700BFFEE700BFFEE700BFD5
:10065000FEE700BFFEE7704770477047704710B570
:1006600040F225510C4801F0C8FD08B100F0ABF98B
:1006700010BD10B50024012000F0B0FF50B10120E2
:1006800000F0BDFF00F096FB044614F4004F01D0CB
:1006900000F0BCFB10BD000000440040002007E05B
:1006A0003021F84A1154F84A1154F84A1154401CA8
:1006B000FF28F5DD7047F44890F83D00F4490870D4
:1006C000F14890F83E004870EF4890F83B00887081
:1006D000ED4890F83C00C870EB4890F8390008717C
:1006E000E94890F83A004871E748C0798871E648CF
:1006F000007AC871E448407A0872E348807A487208
:10070000E148C07A8872E048007BC87208467047AA
:10071000DD48007DDF4A1070DB48407D5070DA48CC
:10072000807D3038A02200FB02F1D748C07D012235
:10073000504301EB0011D448407E303800EB4002BA
:10074000C2EBC01001EBC001CF48807E303800EB17
:10075000C00202EB001001EB8001CB48C07E3038B4
:1007600000EB800001EB4001C748007F30380844AF
:10077000C1B23C2091FBF0F0C1B24FF47A7091FB12
:10078000F0F03030C34AD0704FF47A7091FBF0F241
:1007900000FB1210C1B2642091FBF0F03030BD4A72
:1007A0001071642091FBF0F200FB1210C1B20A201C
:1007B00091FBF0F03030B74A50710A2091FBF0F213
:1007C00000FB1210C1B20A2091FBF0F200FB1210E4
:1007D0003030B04A90713020D0711072AA48807FBA
:1007E000507210467047A84890F82000AA4A10702E
:1007F000A54890F821005070A34890F8220090700E
:10080000A14890F823003038A02200FB02F19E4856
:1008100090F824000122504301EB00119A4890F80F
:100820002600303800EB4002C2EBC01001EBC001E3
:10083000954890F82700303800EBC00202EB00101A
:1008400001EB8001904890F82800303800EB8000E0
:1008500001EB40018C4890F8290030380844C1B2BF
:100860003C2091FBF0F0C1B24FF47A7091FBF0F0B4
:100870003030894A10714FF47A7091FBF0F200FB2E
:100880001210C1B2642091FBF0F03030824A5071F6
:10089000642091FBF0F200FB1210C1B20A2091FB20
:1008A000F0F030307C4A90710A2091FBF0F200FBAE
:1008B0001210C1B20A2091FBF0F200FB121030308E
:1008C000754AD0713020107250726F4890F82B002A
:1008D0009072104670476D48807E3038A02200FB31
:1008E00002F16A48C07E0122504301EB00116748C3
:1008F000007F303800EB4002C2EBC01001EBC001BA
:100900006248807F303800EBC00202EB001001EB40
:100910008000C1B2242091FBF0F0C1B25F4891FB8E
:10092000F0F200FB1210C1B242F2107091FBF0F035
:1009300030305B4A107042F2107091FBF0F200FB15
:100940001210C1B24FF47A7091FBF0F03030544A7B
:1009500050704FF47A7091FBF0F200FB1210C1B2AC
:10096000642091FBF0F030304D4A9070642091FB90
:10097000F0F200FB1210C1B20A2091FBF0F030300F
:10098000474AD0700A2091FBF0F200FB1210303081
:10099000434A1071104670473B4890F83200414975
:1009A0000870394890F833004870374890F83400A0
:1009B0008870354890F83600C870334890F8370092
:1009C00008710846704710B50024374801F0ACFBA9
:1009D00000F07F002B49354A12888854334800883C
:1009E000401C3249088008460088801E2549085C62
:1009F0000D280DD02D480088401E085C0A2807D01D
:100A00002A480088FF2803D1FD20284908808AE071
:100A100026480088801E1B49085C0D28F7D1234812
:100A20000088401E085C0A287DD1084600782428EA
:100A300040D10846407847283CD108468078502865
:100A400038D10846C078562834D108460079542851
:100A500030D10846407947282CD100240CE00948C1
:100A6000005D0A4908550748015D11A001F0AEFD7F
:100A7000002004490855641CFF2CF0DD00200B49C0
:100A8000088050E049000020490200204901002070
:100A900028000020340000203E000020A086010035
:100AA0000000002005000020004400400A00002053
:100AB000256300001C480078242829D11A48407872
:100AC000472825D118488078502821D11648C07869
:100AD00052281DD1144800794D2819D11248407967
:100AE000432815D100240DE00F48005D0F4908553B
:100AF0000D48015DAFF2480001F068FD00200A4991
:100B00000855641CFF2CEFDD0020094908800AE02D
:100B1000002403E0002004490855641CFF2CF9DD83
:100B200000200349088010BD490000204902002030
:100B30000A00002000B585B0012144F2040001F054
:100B400063F94FF40070ADF8100018208DF8130011
:100B500003208DF8120004A9444800F08FFB4FF4E5
:100B60008060ADF8100004208DF8130003208DF88C
:100B7000120004A93D4800F081FB4FF4E1300090E1
:100B80000020ADF80400ADF80600ADF80800ADF89F
:100B90000C000C20ADF80A006946354801F0DFF979
:100BA0004021334801F020FB012240F2255130481A
:100BB00001F052FA012240F227712D4801F04CFA5F
:100BC00001212B4801F03CFA05B000BD08B5182002
:100BD0008DF803004FF49050ADF8000003208DF81D
:100BE00002006946214800F049FB04208DF803000B
:100BF0004FF44060ADF8000069461C4800F03EFB31
:100C000008BD1FB5012144F2050001F0FDF84FF4C5
:100C1000E13000900020ADF80600ADF80400ADF81A
:100C200008004FF44070ADF80C000C20ADF80A003D
:100C300069460F4801F093F901210D4801F000FACF
:100C4000FFF7C4FF1FBD014600BF704770B50446E3
:100C50000D46E1B2064801F063FA00BF40210448A6
:100C600001F0B5FA0028F9D0204670BD0008014017
:100C70000038014000E0401E0028FCD1704770B5EC
:100C80000446002500BF0221FE4801F04BFC00286D
:100C9000F9D02146FB4801F0F2FB00BF0121F948E1
:100CA00001F040FC0028F9D0F64801F0EAFBC5B29B
:100CB000284670BD10B5044600224FF48041F2482A
:100CC00000F08BFB2012FFF7DAFFE0B2FFF7D7FF4F
:100CD00001229103EC4800F080FB10BD10B500200C
:100CE000EA490870EA490870EA4908704CF682201F
:100CF000FFF7E0FF4FF47E40FFF7DCFF4FF6FF7099
:100D0000FFF7B8FF48F2D800FFF7D4FF48F2D82029
:100D1000FFF7D0FF4AF24060FFF7CCFF4CF247608C
:100D2000FFF7C8FF49F2A040FFF7C4FF4CF2AC2028
:100D3000FFF7C0FF4CF67740FFF7BCFF4CF6802072
:100D4000FFF7B8FF4CF68320FFF7B4FF4CF29B404F
:100D5000FFF7B0FF49F65000FFF7ACFF4FF46040DB
:100D6000FFF7A8FF4FF44840FFF7A4FF4FF44040BF
:100D7000FFF7A0FF0020FFF79DFF4FF6FF70FFF782
:100D800079FF10BD10B50A02002310E080EA0204CA
:100D900014F4004F05D041F2210484EA4004A0B2CB
:100DA00001E04404200C5404220C5C1CE3B2082B28
:100DB000ECDB10BD10B500224FF48041B24800F0CA
:100DC0000CFB0020FFF75BFF04020020FFF757FF3A
:100DD000044301229103AC4800F0FFFA204610BD05
:100DE00010B500224FF48041A74800F0F6FAB02079
:100DF000FFF745FF04020020FFF741FF04430122F3
:100E00009103A14800F0E9FA204610BD10B5002476
:100E10009E48007858B3A048007864280ADAFFF7A3
:100E2000DFFFC4B29C490878411C9B4A11709B4962
:100E30000C540AE048F20820FFF73CFF00209349D9
:100E4000087001209349087010BD94480078C01CB8
:100E50009149097888422CDC48F20820FFF72AFFE4
:100E600000208A49087001208A49087021E08848DA
:100E70000078F0B18949884A1278895C41F4384099
:100E8000FFF718FF8448007860B900208049087097
:100E900083A001F09BFB48F20820FFF70BFFFFF750
:100EA00089FF04E07C480078401E7B490870FFF70A
:100EB00081FF00BFC8E710B57648007808B101206F
:100EC00010BD7348007808B10220F9E76F48007838
:100ED00008B10320F4E700206F49087001206B4936
:100EE000087048F25800FFF7E5FE4CF68120FFF746
:100EF000E1FE4CF68320FFF7DDFE48F2D820FFF735
:100F0000D9FE0020DCE72DE9F04106464FF000084D
:100F1000624805785D48007810B1FF20BDE8F08197
:100F20005C48007808B9FE20F8E7642D04DD002055
:100F3000307058490870F1E7002407E05748015D18
:100F40004046FFF71FFF8046601CC4B2681C844205
:100F5000F4DB2046611CCCB250490F5C0846005DB2
:100F600047EA002700204B490870474500D0D5E7E5
:100F7000002405E04949601C085C3055601CC4B27F
:100F8000AC42F7DB002070552846C7E72DE9F04159
:100F900080460D461DB9404601F082FBC5B23C4873
:100FA000007810B10120BDE8F0813848007808B120
:100FB0000220F8E7642D01DD0320F4E70120344925
:100FC000087005F109003449087008460478AA221F
:100FD0002046611ECCB231490A542046611ECCB273
:100FE0002E490A542046611ECCB22C490A542D22A7
:100FF0002046611ECCB229490A54D4222046611EE3
:10100000CCB226490A542046611ECCB223490D5465
:1010100029460020FFF7B6FE074600260EE018F826
:1010200006202046611ECCB21C490A5418F806104E
:101030003846FFF7A7FE0746701CC6B2AE42EEDB8D
:101040002046611ECCB215490F543A122046611E4B
:10105000CCB212490A54AA222046611ECCB20F49D2
:101060000A542046611ECCB20C490A5448F228208A
:10107000FFF720FE4FF6FF70FFF7FCFD48F2382027
:1010800012E0000000300140000C0140110000207F
:10109000120000201300002010000020490300204F
:1010A0007478206F66660000FFF704FEFFF782FE8B
:1010B000002078E710B5002006490870064908703E
:1010C0000649087048F20820FFF7F4FDFFF772FEAA
:1010D00010BD0000110000201200002013000020AD
:1010E00031490143314A1160704770B50021002336
:1010F0000F22C4780CB32D4C246804F4E064C4F5CA
:10110000E064210AC1F10403CA40447804FA03F1FF
:101110008478144021430901254C0678A1550478B0
:1011200004F01F050124AC4005786D114FF0E02656
:1011300006EB8505C5F8004109E0047804F01F05B9
:101140000124AC401B4D0678761145F8264070BD51
:10115000194A0A400243154B1B1F1A60704739B1E8
:10116000124A121D12680243104B1B1D1A6006E042
:101170000E4A121D126882430C4B1B1D1A607047E9
:10118000042808D14FF0E021096941F004014FF033
:10119000E022116107E04FF0E021096921F004012C
:1011A0004FF0E022116170470000FA050CED00E0FD
:1011B00000E400E080E100E080FFFF1F10B504467E
:1011C000C248844208D10121042000F037FE0021EA
:1011D000042000F033FE46E0BD48844208D10121DE
:1011E000082000F02BFE0021082000F027FE3AE046
:1011F000B848844208D10121102000F01FFE0021D0
:10120000102000F01BFE2EE0B348844208D10121DB
:10121000202000F013FE0021202000F00FFE22E02D
:10122000AE48844208D10121402000F007FE002191
:10123000402000F003FE16E0A948844208D10121B5
:10124000802000F0FBFD0021802000F0F7FD0AE087
:10125000A448844207D10121801500F0EFFD002150
:10126000A01500F0EBFD10BD10B50121084600F0FF
:10127000E5FD0021012000F0E1FD10BD2DE9F04168
:10128000024600250026002000230024002791F8B4
:1012900003C00CF00F0591F803C01CF0100F03D031
:1012A00091F802C04CEA0505B1F800C01CF0FF0F30
:1012B00031D0146800202BE04FF0010C0CFA00F341
:1012C000B1F800C00CEA03069E4220D183004FF023
:1012D0000F0C0CFA03F7BC4305FA03FC4CEA0404B8
:1012E00091F803C0BCF1280F06D14FF0010C0CFAA5
:1012F00000FCC2F814C00AE091F803C0BCF1480F2A
:1013000005D14FF0010C0CFA00FCC2F810C0401CD3
:101310000828D1D31460B1F800C0BCF1FF0F34DD50
:10132000546800202EE000F1080C4FF0010808FA84
:101330000CF3B1F800C00CEA03069E4221D18300F1
:101340004FF00F0C0CFA03F7BC4305FA03FC4CEA10
:10135000040491F803C0BCF1280F05D100F1080C7A
:1013600008FA0CF8C2F8148091F803C0BCF1480FD9
:1013700007D100F1080C4FF0010808FA0CF8C2F888
:101380001080401C0828CED35460BDE8F0814FF691
:10139000FF710180022181700421C17070470246F3
:1013A000002093680B4201D0012000E0002070472C
:1013B0000146886880B2704702460020D3680B421D
:1013C00001D0012000E0002070470146C86880B2CB
:1013D000704701617047416170470AB1016100E0E7
:1013E00041617047C16070474FF480320A438261A7
:1013F00081618261826982697047024600203A4BAE
:1014000018684FF68073184040EA02100843364BC4
:10141000186070473549C8617047F0B50A46002327
:10142000002400210025304E7168C0F3034583B2CB
:1014300000F44016B6F5401F08D121F070612A4E25
:10144000766826F07066284F7E6012E000F4801601
:10145000B6F5801F06D1032606FA05F4A14341F034
:10146000706106E0460D360103FA06F6B14341F01D
:10147000706122B1460D360103FA06F631431A4E69
:101480007160F0BD30B500228B071C0F0F2303FAEB
:1014900004F2154B08338C1053F824309343124C4C
:1014A00008348D1044F8253023468C1053F824302E
:1014B0008C07240F00FA04F423430B4C08348D10DE
:1014C00044F8253030BD0A490860704700080140E3
:1014D000000C0140001001400014014000180140C0
:1014E000001C01400020014000000140000020429B
:1014F000DC002042002044490860091D0860091DE5
:101500000860091D086041483F4914310860704770
:1015100000213D498279002A3AD00A4612680368C0
:101520009A430B461A600A1D126803689A430B1D02
:101530001A60027911440A6803681A430A60324A41
:101540000832126803689A432F4B08331A601A1D39
:10155000126803689A432C4B0C331A604279102AA4
:101560000ED11A1F126803681A43274B08331A60FA
:101570001A1D126803681A43234B0C331A600DE0DE
:101580002149427911440A6803681A430A6005E058
:10159000027911440A6803689A430A60704700217F
:1015A000016001710C214171002181717047164960
:1015B000103109680143144A103211607047014626
:1015C0000020114A143212680A4201D0012000E0C2
:1015D000002070470C491431086070470146002014
:1015E0000022094B1B6803EA0102074B14331B68F6
:1015F0000B4202D00AB1012000E0002070470249EE
:10160000143108607047000000040140FFFF0F0024
:1016100001460020FA4A106800F0380008431060C4
:101620007047F749096821F00801F54A1160114631
:101630000968014311607047F149096821F0100100
:10164000EF4A116011460968014311607047ED4887
:10165000EB494860EC4848607047E948006940F051
:101660008000E749086170470420E549C96801F036
:101670000101012901D101200EE0E149C96811F001
:10168000040F01D0022007E0DD49C96811F0100FF6
:1016900001D0032000E0042070470020FF2000E07C
:1016A000401E0028FCD1704770B504460425FFF7A2
:1016B000DBFF054605E0FFF7F0FFFFF7D5FF054626
:1016C000641E012D01D1002CF5D104B90525284651
:1016D00070BD70B50546042440F6FF70FFF7E4FFC7
:1016E0000446042C19D1C648006940F00200C449E0
:1016F000086108464561006940F04000086140F615
:10170000FF70FFF7D1FF0446052C06D0BC480069E6
:1017100041F6FD710840BA490861204670BD10B518
:10172000042440F6FF70FFF7BFFF0446042C18D1D5
:10173000B348006940F00400B149086108460069F7
:1017400040F04000086140F6FF70FFF7ADFF04462F
:10175000052C06D0AA48006941F6FB710840A8494B
:101760000861204610BD10B5042440F6FF70FFF755
:101770009BFF0446042C3BD1A248A1498860A248A3
:1017800088600846006940F020000861084600694A
:1017900040F04000086140F6FF70FFF785FF044607
:1017A000042C1CD19648006941F6DF710840944929
:1017B00008610846006940F010000861A5209349BF
:1017C00008800F20FFF770FF0446052C10D08C48CE
:1017D000006941F6EF7108408949086108E0052C6D
:1017E00006D08748006941F6EF71084084490861D6
:1017F000204610BD2DE9F04105460E460424002781
:101800000F20FFF751FF0446042C26D17C480069C5
:1018100040F001007A4908612E800F20FFF744FF55
:101820000446042C10D1AF1C300C38800F20FFF779
:101830003BFF0446052C10D07148006941F6FE714B
:1018400008406F49086108E0052C06D06C48006923
:1018500041F6FE7108406A4908612046BDE8F08102
:1018600070B505460E4604240F20FFF71DFF044601
:10187000042C13D16248006940F0010060490861FE
:101880002E800F20FFF710FF0446052C06D05C4881
:10189000006941F6FE71084059490861204670BD53
:1018A00070B505460E4604240F20FFF7FDFE0446E2
:1018B000042C17D153485249886053488860084621
:1018C000006940F0100008612E800F20FFF7ECFE49
:1018D0000446052C06D04A48006941F6EF710840DD
:1018E00047490861204670BD2DE9F04704464FF690
:1018F000FF763746B046B1460425E443E6B2C4F36A
:101900000727C4F307484FEA14690F20FFF7CCFEFE
:101910000546042D40D13B48394988603A488860E3
:101920000846006940F010000861FF2E06D03748D5
:10193000083006800F20FFF7B7FE0546042D08D1BA
:10194000FF2F06D031480A3007800F20FFF7ACFE8A
:101950000546042D0AD1B8F1FF0F07D02B480C30F3
:10196000A0F800800F20FFF79FFE0546042D0AD146
:10197000B9F1FF0F07D025480E30A0F800900F20D6
:10198000FFF792FE0546052D06D01D48006941F679
:10199000EF7108401A4908612846BDE8F08770B524
:1019A0000546042440F6FF70FFF77EFE0446042C33
:1019B00049D1144812498860134888600846006974
:1019C00040F0200008610846006940F040000861CE
:1019D00040F6FF70FFF768FE0446042C2AD1084841
:1019E000006941F6DF710840054908610846006951
:1019F00040F0100008615DB10020044908800AE051
:101A00000020024023016745AB89EFCD00F8FF1F9E
:101A1000A5204549088040F6FF70FFF745FE0446C3
:101A2000052C10D04148006941F6EF7108403F494C
:101A3000086108E0052C06D03C48006941F6DF71DA
:101A400008403A490861204670BD2DE9F04105463D
:101A50000E46174604243648344988603548886065
:101A60000F20FFF721FE0446042C19D12F480069EE
:101A700040F010002D49086147F0F800304328433A
:101A80002949891C08800F20FFF70EFE0446052C0B
:101A900006D02648006941F6EF71084023490861E5
:101AA0002046BDE8F0812148C069800870471F4882
:101AB000006A704700201D49C96911F0020F01D06A
:101AC000012000E00020704700201849096811F04B
:101AD000200F01D0012000E00020704729B1134AF7
:101AE00012690243114B1A6104E0104A12698243E1
:101AF0000E4B1A61704701460020012908D10B4A9C
:101B0000D26912F0010F01D0012008E0002006E0A8
:101B1000064AD2680A4201D0012000E00020704746
:101B20000249C8607047000000F8FF1F0020024013
:101B300023016745AB89EFCDDC48006840F0010028
:101B4000DA49086008464068D9490840D7494860E2
:101B500008460068D7490840D4490860084600682C
:101B600020F4802008600846406820F4FE004860A9
:101B70004FF41F0088607047CC49096821F4803118
:101B8000CA4A11601146096821F480211160B0F53C
:101B9000803F03D0B0F5802F0ED106E0C34909681D
:101BA00041F48031C14A116007E0C049096841F43D
:101BB000A021BE4A116000E000BF00BF704710B511
:101BC00001460022002300204A11012A02D1B74C0D
:101BD000236806E0022A02D1B44C236A01E0B34C28
:101BE000636A01F01F02012494401C4201D00120CD
:101BF00000E0002010BD70B500240025002600BFC5
:101C00003120FFF7DCFF0646641CB4F5A06F01D05D
:101C1000002EF5D03120FFF7D2FF08B1012500E0FA
:101C20000025284670BD01460020A04A106820F01B
:101C3000F80040EAC100106070479F490860704793
:101C400002460020994B586820F47C1042EA0103B8
:101C50001843964B5860704797490866704701468D
:101C60000020924A506820F00300084350607047FB
:101C70008E48406800F00C007047014600208B4AF7
:101C8000506820F0F0000843506070470146002083
:101C9000864A506820F4E06008435060704701466F
:101CA0000020824A506820F4605040EAC100506031
:101CB000704729B17D4A527A02437C4B5A7206E042
:101CC0007A4A527AC343DBB21A40784B5A72704751
:101CD0007A490860704701460020744A506820F431
:101CE00040400843506070470021754A11706F4AA8
:101CF00082F82010012802D0042808D103E0012135
:101D00006F4A117004E005216D4A117000E000BFB8
:101D100000BF70476B49086070476449096A014316
:101D2000624A11627047674944390860704730B5AC
:101D300000210022002400235C4D6D6805F00C0199
:101D400021B1042905D0082923D105E05E4D0560A5
:101D500022E05D4D05601FE0544D6D6805F4701282
:101D6000524D6D6805F48034022505EB92421CB992
:101D7000564D554305600BE04C4D6D6815F4003F22
:101D800003D0524D5543056002E04F4D5543056069
:101D900002E04D4D056000BF00BF444D6D6805F089
:101DA000F00109094A4D6B5C0568DD4045603F4D17
:101DB0006D6805F4E061090A454D6B5C4568DD40DE
:101DC00085603A4D6D6805F46051C90A404D6B5C01
:101DD0004568DD40C560354D6D6805F44041890BAF
:101DE0003C4D6B5CC568B5FBF3F5056130BD29B1B1
:101DF0002E4A526902432D4B5A6104E02B4A526924
:101E000082432A4B5A61704729B1284A926902439A
:101E1000264B9A6104E0254A92698243234B9A61DA
:101E2000704729B1214AD2690243204BDA6104E0AC
:101E30001E4AD26982431D4BDA61704729B11B4AA1
:101E4000D2680243194BDA6004E0184AD268824330
:101E5000164BDA60704729B1144A12690243134BDA
:101E60001A6104E0114A12698243104B1A617047EB
:101E700014494039086070470F49C86470470B49DE
:101E8000C87170470948406A40F08070074948624D
:101E9000704701460020054A92680A4201D001209D
:101EA00000E000207047014988727047001002402E
:101EB0000000FFF8FFFFF6FE00004242D800424259
:101EC000201002408004424200127A0000093D00C6
:101ED000140000202400002010B50446E34884428A
:101EE00009D101218803FFF7A9FF00214FF48040A9
:101EF000FFF7A4FF32E0DE48844209D10121480403
:101F0000FFF7A9FF00214FF40030FFF7A4FF25E001
:101F1000D848844209D101218804FFF79CFF0021A1
:101F20004FF48020FFF797FF18E0D348844209D18F
:101F30000121C804FFF78FFF00214FF40020FFF7B5
:101F40008AFF0BE0CD48844208D101210805FFF744
:101F500082FF00214FF48010FFF77DFF10BD2DE9B7
:101F6000F04786B005460E460024A24600BF00BFDB
:101F70000027B08900B100BF2F462C8A4CF6FF70B5
:101F80000440F08804432C82AC894EF6F3100440E0
:101F9000B08831890843718908430443AC81AC8A15
:101FA0004FF6FF400440B0890443AC8201A8FFF71C
:101FB000BEFEAE48874202D1DDF810A001E0DDF898
:101FC0000CA00AEBCA0000EB0A1031688900B0FBD4
:101FD000F1F86420B8FBF0F004012009642101FB52
:101FE0001089322000EB0910B0FBF1F000F00F0077
:101FF00004432C8106B0BDE8F0874FF41651016010
:1020000000218180C18001810C21418100218181D9
:10201000704710B502460020108A4FF2FF031840A7
:102020000B884C8823438C882343CC882343184354
:10203000108210BD0021018041808180C1807047E5
:1020400021B1828942F40052828104E082894DF6F6
:10205000FF731A4082817047F0B5034600240026C2
:1020600000250020A1F510676A3F00D100BF184687
:10207000C1F3421401F01F06012707FA06F5012CEF
:1020800001D10C3004E0022C01D1103000E01430FA
:102090001AB107682F43076002E00768AF43076083
:1020A000F0BD10B51AB1838A0B43838204E0838AA2
:1020B000CC43A4B22340838210BD028A4FF6F07352
:1020C0001A400282028A0A430282704782894FF2D2
:1020D000FF731A40828182890A438281704721B14D
:1020E000828942F00202828104E082894FF6FD7308
:1020F0001A4082817047028A4FF6DF731A400282CB
:10210000028A0A430282704721B1028A42F4804265
:10211000028204E0028A4BF6FF731A400282704783
:10212000C1F308028280704701468888C0F3080026
:102130007047818941F0010181817047028BD2B2E1
:102140000283028B42EA012202837047028B02F46F
:102150007F420283028B0A430283704721B1828A45
:1021600042F02002828204E0828A4FF6DF731A4036
:102170008282704721B1828A42F01002828204E09A
:10218000828A4FF6EF731A408282704721B1828AA9
:1021900042F00802828204E0828A4FF6F7731A4006
:1021A00082827047828A4FF6FB731A408282828A4B
:1021B0000A438282704721B1828A42F002028282FF
:1021C00004E0828A4FF6FD731A408282704702460D
:1021D0000020B1F5007F00D100BF13880B4201D071
:1021E000012000E00020704701F40072B2F5007F8A
:1021F00000D100BFCA430280704770B50246002478
:10220000002300250020A1F510666A3E00D100BF22
:10221000C1F3421501F01F03012606FA03F3012D55
:1022200002D19689334006E0022D02D1168A33404E
:1022300001E0968A33400C12012606FA04F416884F
:10224000344013B10CB1012000E0002070BD10B586
:1022500000220023A1F510646A3C00D100BF0A12DD
:1022600001249440A3B2DC43048010BD0038014037
:102270000044004000480040004C00400050004036
:1022800010B50446BF48844208D101218014FFF7ED
:10229000D5FD0021A014FFF7D1FD16E0BA48844215
:1022A00008D101210014FFF7D6FD00212014FFF70B
:1022B000D2FD0AE0B548844207D10121C013FFF7DF
:1022C000CAFD0021E013FFF7C6FD10BD10B50022C6
:1022D000028802F441520B884C8823438C882343A4
:1022E000CC8823430C8923434C8923438C89234383
:1022F000CC8923431A430280838B4FF2FF7423401F
:1023000083830B8A038210BD2DE9F04F85B005460B
:102310000C464FF0000902274FF000084FF0010B68
:102320000026B246A88B4FF240010840A883022045
:102330002884B5F81C902089022801D100BF36E01E
:10234000A08810B94FF0010B01E04FF0020B8E484E
:10235000854200D100E000BF6846FFF7E8FCDDF8E9
:1023600000A0E088B0F5007F0AD14FEA1A2000EB08
:10237000800040002189B0FBF1F0401D86B20BE0E7
:102380004FEA4B10BAFBF0F000EB800040002189CF
:10239000B0FBF1F0401D86B20A20B6FBF0F606F065
:1023A0000108A6EB0800C0F34F074FEA0828022FE8
:1023B00001DBFF2F02DD02274FF00008E08840EA32
:1023C000080038432884A08861890843618808434D
:1023D0002188084340F4006040EA0909A5F81C90F0
:1023E00005B0BDE8F08F0021018041808180C1806F
:1023F000018141818181C1810721018270470021D2
:10240000018041808180C1800221018100214181C0
:10241000704721B1028842F04002028004E0028845
:102420004FF6BF731A400280704721B1828B42F48D
:102430008062828304E0828B4FF6FF331A408283EE
:10244000704770B5002400230C110125A540ABB2E4
:102450001AB185881D43858004E08588DE43B6B2C5
:102460003540858070BD10B51AB183880B438380D9
:1024700004E08388CC43A4B22340838010BD8181D3
:102480007047014688897047A1F57E42FF3A04D023
:10249000028842F48072028004E002884FF6FF63F3
:1024A0001A400280704721B1828842F00402828083
:1024B00004E082884FF6FB731A40828070470288DE
:1024C0004FF2FF731A40028002880A43028070476D
:1024D000018841F480510180704721B1028842F4A3
:1024E0000052028004E002884DF6FF731A40028019
:1024F000704702460020012901D0108B00E0908A2D
:1025000070470146088A7047B1F5804F04D10288B0
:1025100042F48042028004E002884BF6FF731A40C6
:10252000028070470246002013890B4201D001202F
:1025300000E000207047CA4302817047F0B50246B0
:10254000002000240023002501F00F070126BE40D3
:10255000B4B20B1101269E40B3B2968806EA030579
:102560001689264202D00DB1012000E00020F0BD06
:1025700010B5002201F00F040123A3409AB2D34307
:10258000038110BD0030014000380040003C004095
:1025900008480047FEE7FEE7FEE7FEE7FEE7FEE746
:1025A000FEE7FEE7FEE7FEE703480449044A054B61
:1025B000704700005101000818040020180A00208C
:1025C0001806002018060020704700000FB40449C8
:1025D00010B503AA029800F09DF810BC5DF814FB3A
:1025E0000C0000202DE9F04104460E4600200AE0D0
:1025F000E1682046884738B3252806D0D4E9012170
:102600009047206A401C2062F2E7E16820460027DC
:102610008847050018D0A5F14100192802D82035B7
:102620004FF400673246294620462760FDF7CAFD71
:1026300040B1012804D0F61D26F007060836D7E77A
:10264000361DD5E72846D9E7206ABDE8F08170B588
:1026500005460C46012A05D02868800600D5EA699F
:10266000002302E0012305E05B1C934202D2E05C00
:102670000028F9D1A869E618C01AA861286A184488
:1026800028622846AFF3008004E0D5E9012114F860
:10269000010B9047B442F8D32846AFF3008070BDD9
:1026A00010B5431C02E010F8011B71B18107FAD18B
:1026B0004FF0013202C88C1A8C4314EAC211F9D0CF
:1026C000C01A0A0603D0C01E10BDC01A10BD0A04ED
:1026D00001D0801E10BD0902FCD0401E10BD704705
:1026E00070477047704710B5436913B1AFF300806E
:1026F00001E0FFF7ACFF012010BD126800F12401DA
:102700000A7000224A700122EDE711684FF0FF3293
:10271000E9E70000074B70B50C467B4400F011F868
:102720000546204600F020F810B14FF0FF3070BD94
:10273000284670BD2FE5FFFF01694A1C0261087839
:10274000704700B58FB0CDE90131002105910549F1
:102750007944CDE9031011466846FFF743FF0FB0F7
:1027600000BD0000E5FFFFFFC06800F0800070477B
:10277000754600F029F8AE4605006946534620F03C
:102780000700854618B020B5FFF70EFFBDE82040D2
:102790004FF000064FF000074FF000084FF0000B1D
:1027A00021F00701AC46ACE8C009ACE8C009ACE8D0
:1027B000C009ACE8C0098D4670470446AFF30080FD
:1027C0002046FDF713FD000000487047B8030020C5
:1027D00000487047BC03002010B5FFF7F9FF4FF029
:1027E0000001016010BD0000082800080000002062
:1027F000280000008C010008302800082800002074
:10280000F0090000A801000800000000000000001E
:1028100000000000000000000000000000000000B8
:102820000102030401020304060708090204060862
:04000005080001519D
:00000001FF
